{
  "_format": "hh-sol-artifact-1",
  "contractName": "Supernets2",
  "sourceName": "contracts/Supernets2.sol",
  "abi": [
    {
      "inputs": [
        {
          "internalType": "contract ISupernets2GlobalExitRoot",
          "name": "_globalExitRootManager",
          "type": "address"
        },
        {
          "internalType": "contract IERC20Upgradeable",
          "name": "_matic",
          "type": "address"
        },
        {
          "internalType": "contract IVerifierRollup",
          "name": "_rollupVerifier",
          "type": "address"
        },
        {
          "internalType": "contract ISupernets2Bridge",
          "name": "_bridgeAddress",
          "type": "address"
        },
        {
          "internalType": "contract ISupernets2DataCommittee",
          "name": "_dataCommitteeAddress",
          "type": "address"
        },
        {
          "internalType": "uint64",
          "name": "_chainID",
          "type": "uint64"
        },
        {
          "internalType": "uint64",
          "name": "_forkID",
          "type": "uint64"
        }
      ],
      "stateMutability": "nonpayable",
      "type": "constructor"
    },
    {
      "inputs": [],
      "name": "BatchAlreadyVerified",
      "type": "error"
    },
    {
      "inputs": [],
      "name": "BatchNotSequencedOrNotSequenceEnd",
      "type": "error"
    },
    {
      "inputs": [],
      "name": "ExceedMaxVerifyBatches",
      "type": "error"
    },
    {
      "inputs": [],
      "name": "FinalNumBatchBelowLastVerifiedBatch",
      "type": "error"
    },
    {
      "inputs": [],
      "name": "FinalNumBatchDoesNotMatchPendingState",
      "type": "error"
    },
    {
      "inputs": [],
      "name": "FinalPendingStateNumInvalid",
      "type": "error"
    },
    {
      "inputs": [],
      "name": "ForceBatchNotAllowed",
      "type": "error"
    },
    {
      "inputs": [],
      "name": "ForceBatchTimeoutNotExpired",
      "type": "error"
    },
    {
      "inputs": [],
      "name": "ForceBatchesAlreadyActive",
      "type": "error"
    },
    {
      "inputs": [],
      "name": "ForceBatchesOverflow",
      "type": "error"
    },
    {
      "inputs": [],
      "name": "ForcedDataDoesNotMatch",
      "type": "error"
    },
    {
      "inputs": [],
      "name": "GlobalExitRootNotExist",
      "type": "error"
    },
    {
      "inputs": [],
      "name": "HaltTimeoutNotExpired",
      "type": "error"
    },
    {
      "inputs": [],
      "name": "InitNumBatchAboveLastVerifiedBatch",
      "type": "error"
    },
    {
      "inputs": [],
      "name": "InitNumBatchDoesNotMatchPendingState",
      "type": "error"
    },
    {
      "inputs": [],
      "name": "InvalidProof",
      "type": "error"
    },
    {
      "inputs": [],
      "name": "InvalidRangeBatchTimeTarget",
      "type": "error"
    },
    {
      "inputs": [],
      "name": "InvalidRangeForceBatchTimeout",
      "type": "error"
    },
    {
      "inputs": [],
      "name": "InvalidRangeMultiplierBatchFee",
      "type": "error"
    },
    {
      "inputs": [],
      "name": "NewAccInputHashDoesNotExist",
      "type": "error"
    },
    {
      "inputs": [],
      "name": "NewPendingStateTimeoutMustBeLower",
      "type": "error"
    },
    {
      "inputs": [],
      "name": "NewStateRootNotInsidePrime",
      "type": "error"
    },
    {
      "inputs": [],
      "name": "NewTrustedAggregatorTimeoutMustBeLower",
      "type": "error"
    },
    {
      "inputs": [],
      "name": "NotEnoughMaticAmount",
      "type": "error"
    },
    {
      "inputs": [],
      "name": "OldAccInputHashDoesNotExist",
      "type": "error"
    },
    {
      "inputs": [],
      "name": "OldStateRootDoesNotExist",
      "type": "error"
    },
    {
      "inputs": [],
      "name": "OnlyAdmin",
      "type": "error"
    },
    {
      "inputs": [],
      "name": "OnlyEmergencyState",
      "type": "error"
    },
    {
      "inputs": [],
      "name": "OnlyNotEmergencyState",
      "type": "error"
    },
    {
      "inputs": [],
      "name": "OnlyPendingAdmin",
      "type": "error"
    },
    {
      "inputs": [],
      "name": "OnlyTrustedAggregator",
      "type": "error"
    },
    {
      "inputs": [],
      "name": "OnlyTrustedSequencer",
      "type": "error"
    },
    {
      "inputs": [],
      "name": "PendingStateDoesNotExist",
      "type": "error"
    },
    {
      "inputs": [],
      "name": "PendingStateInvalid",
      "type": "error"
    },
    {
      "inputs": [],
      "name": "PendingStateNotConsolidable",
      "type": "error"
    },
    {
      "inputs": [],
      "name": "PendingStateTimeoutExceedHaltAggregationTimeout",
      "type": "error"
    },
    {
      "inputs": [],
      "name": "SequenceZeroBatches",
      "type": "error"
    },
    {
      "inputs": [],
      "name": "SequencedTimestampBelowForcedTimestamp",
      "type": "error"
    },
    {
      "inputs": [],
      "name": "SequencedTimestampInvalid",
      "type": "error"
    },
    {
      "inputs": [],
      "name": "StoredRootMustBeDifferentThanNewRoot",
      "type": "error"
    },
    {
      "inputs": [],
      "name": "TransactionsLengthAboveMax",
      "type": "error"
    },
    {
      "inputs": [],
      "name": "TrustedAggregatorTimeoutExceedHaltAggregationTimeout",
      "type": "error"
    },
    {
      "inputs": [],
      "name": "TrustedAggregatorTimeoutNotExpired",
      "type": "error"
    },
    {
      "anonymous": false,
      "inputs": [
        {
          "indexed": false,
          "internalType": "address",
          "name": "newAdmin",
          "type": "address"
        }
      ],
      "name": "AcceptAdminRole",
      "type": "event"
    },
    {
      "anonymous": false,
      "inputs": [],
      "name": "ActivateForceBatches",
      "type": "event"
    },
    {
      "anonymous": false,
      "inputs": [
        {
          "indexed": true,
          "internalType": "uint64",
          "name": "numBatch",
          "type": "uint64"
        },
        {
          "indexed": false,
          "internalType": "bytes32",
          "name": "stateRoot",
          "type": "bytes32"
        },
        {
          "indexed": true,
          "internalType": "uint64",
          "name": "pendingStateNum",
          "type": "uint64"
        }
      ],
      "name": "ConsolidatePendingState",
      "type": "event"
    },
    {
      "anonymous": false,
      "inputs": [],
      "name": "EmergencyStateActivated",
      "type": "event"
    },
    {
      "anonymous": false,
      "inputs": [],
      "name": "EmergencyStateDeactivated",
      "type": "event"
    },
    {
      "anonymous": false,
      "inputs": [
        {
          "indexed": true,
          "internalType": "uint64",
          "name": "forceBatchNum",
          "type": "uint64"
        },
        {
          "indexed": false,
          "internalType": "bytes32",
          "name": "lastGlobalExitRoot",
          "type": "bytes32"
        },
        {
          "indexed": false,
          "internalType": "address",
          "name": "sequencer",
          "type": "address"
        },
        {
          "indexed": false,
          "internalType": "bytes",
          "name": "transactions",
          "type": "bytes"
        }
      ],
      "name": "ForceBatch",
      "type": "event"
    },
    {
      "anonymous": false,
      "inputs": [
        {
          "indexed": false,
          "internalType": "uint8",
          "name": "version",
          "type": "uint8"
        }
      ],
      "name": "Initialized",
      "type": "event"
    },
    {
      "anonymous": false,
      "inputs": [
        {
          "indexed": true,
          "internalType": "uint64",
          "name": "numBatch",
          "type": "uint64"
        },
        {
          "indexed": false,
          "internalType": "bytes32",
          "name": "stateRoot",
          "type": "bytes32"
        },
        {
          "indexed": true,
          "internalType": "address",
          "name": "aggregator",
          "type": "address"
        }
      ],
      "name": "OverridePendingState",
      "type": "event"
    },
    {
      "anonymous": false,
      "inputs": [
        {
          "indexed": true,
          "internalType": "address",
          "name": "previousOwner",
          "type": "address"
        },
        {
          "indexed": true,
          "internalType": "address",
          "name": "newOwner",
          "type": "address"
        }
      ],
      "name": "OwnershipTransferred",
      "type": "event"
    },
    {
      "anonymous": false,
      "inputs": [
        {
          "indexed": false,
          "internalType": "bytes32",
          "name": "storedStateRoot",
          "type": "bytes32"
        },
        {
          "indexed": false,
          "internalType": "bytes32",
          "name": "provedStateRoot",
          "type": "bytes32"
        }
      ],
      "name": "ProveNonDeterministicPendingState",
      "type": "event"
    },
    {
      "anonymous": false,
      "inputs": [
        {
          "indexed": true,
          "internalType": "uint64",
          "name": "numBatch",
          "type": "uint64"
        }
      ],
      "name": "SequenceBatches",
      "type": "event"
    },
    {
      "anonymous": false,
      "inputs": [
        {
          "indexed": true,
          "internalType": "uint64",
          "name": "numBatch",
          "type": "uint64"
        }
      ],
      "name": "SequenceForceBatches",
      "type": "event"
    },
    {
      "anonymous": false,
      "inputs": [
        {
          "indexed": false,
          "internalType": "uint64",
          "name": "newforceBatchTimeout",
          "type": "uint64"
        }
      ],
      "name": "SetForceBatchTimeout",
      "type": "event"
    },
    {
      "anonymous": false,
      "inputs": [
        {
          "indexed": false,
          "internalType": "uint16",
          "name": "newMultiplierBatchFee",
          "type": "uint16"
        }
      ],
      "name": "SetMultiplierBatchFee",
      "type": "event"
    },
    {
      "anonymous": false,
      "inputs": [
        {
          "indexed": false,
          "internalType": "uint64",
          "name": "newPendingStateTimeout",
          "type": "uint64"
        }
      ],
      "name": "SetPendingStateTimeout",
      "type": "event"
    },
    {
      "anonymous": false,
      "inputs": [
        {
          "indexed": false,
          "internalType": "address",
          "name": "newTrustedAggregator",
          "type": "address"
        }
      ],
      "name": "SetTrustedAggregator",
      "type": "event"
    },
    {
      "anonymous": false,
      "inputs": [
        {
          "indexed": false,
          "internalType": "uint64",
          "name": "newTrustedAggregatorTimeout",
          "type": "uint64"
        }
      ],
      "name": "SetTrustedAggregatorTimeout",
      "type": "event"
    },
    {
      "anonymous": false,
      "inputs": [
        {
          "indexed": false,
          "internalType": "address",
          "name": "newTrustedSequencer",
          "type": "address"
        }
      ],
      "name": "SetTrustedSequencer",
      "type": "event"
    },
    {
      "anonymous": false,
      "inputs": [
        {
          "indexed": false,
          "internalType": "string",
          "name": "newTrustedSequencerURL",
          "type": "string"
        }
      ],
      "name": "SetTrustedSequencerURL",
      "type": "event"
    },
    {
      "anonymous": false,
      "inputs": [
        {
          "indexed": false,
          "internalType": "uint64",
          "name": "newVerifyBatchTimeTarget",
          "type": "uint64"
        }
      ],
      "name": "SetVerifyBatchTimeTarget",
      "type": "event"
    },
    {
      "anonymous": false,
      "inputs": [
        {
          "indexed": false,
          "internalType": "address",
          "name": "newPendingAdmin",
          "type": "address"
        }
      ],
      "name": "TransferAdminRole",
      "type": "event"
    },
    {
      "anonymous": false,
      "inputs": [
        {
          "indexed": false,
          "internalType": "uint64",
          "name": "numBatch",
          "type": "uint64"
        },
        {
          "indexed": false,
          "internalType": "uint64",
          "name": "forkID",
          "type": "uint64"
        },
        {
          "indexed": false,
          "internalType": "string",
          "name": "version",
          "type": "string"
        }
      ],
      "name": "UpdateSupernets2Version",
      "type": "event"
    },
    {
      "anonymous": false,
      "inputs": [
        {
          "indexed": true,
          "internalType": "uint64",
          "name": "numBatch",
          "type": "uint64"
        },
        {
          "indexed": false,
          "internalType": "bytes32",
          "name": "stateRoot",
          "type": "bytes32"
        },
        {
          "indexed": true,
          "internalType": "address",
          "name": "aggregator",
          "type": "address"
        }
      ],
      "name": "VerifyBatches",
      "type": "event"
    },
    {
      "anonymous": false,
      "inputs": [
        {
          "indexed": true,
          "internalType": "uint64",
          "name": "numBatch",
          "type": "uint64"
        },
        {
          "indexed": false,
          "internalType": "bytes32",
          "name": "stateRoot",
          "type": "bytes32"
        },
        {
          "indexed": true,
          "internalType": "address",
          "name": "aggregator",
          "type": "address"
        }
      ],
      "name": "VerifyBatchesTrustedAggregator",
      "type": "event"
    },
    {
      "inputs": [],
      "name": "acceptAdminRole",
      "outputs": [],
      "stateMutability": "nonpayable",
      "type": "function"
    },
    {
      "inputs": [
        {
          "internalType": "uint64",
          "name": "sequencedBatchNum",
          "type": "uint64"
        }
      ],
      "name": "activateEmergencyState",
      "outputs": [],
      "stateMutability": "nonpayable",
      "type": "function"
    },
    {
      "inputs": [],
      "name": "activateForceBatches",
      "outputs": [],
      "stateMutability": "nonpayable",
      "type": "function"
    },
    {
      "inputs": [],
      "name": "admin",
      "outputs": [
        {
          "internalType": "address",
          "name": "",
          "type": "address"
        }
      ],
      "stateMutability": "view",
      "type": "function"
    },
    {
      "inputs": [],
      "name": "batchFee",
      "outputs": [
        {
          "internalType": "uint256",
          "name": "",
          "type": "uint256"
        }
      ],
      "stateMutability": "view",
      "type": "function"
    },
    {
      "inputs": [
        {
          "internalType": "uint64",
          "name": "",
          "type": "uint64"
        }
      ],
      "name": "batchNumToStateRoot",
      "outputs": [
        {
          "internalType": "bytes32",
          "name": "",
          "type": "bytes32"
        }
      ],
      "stateMutability": "view",
      "type": "function"
    },
    {
      "inputs": [],
      "name": "bridgeAddress",
      "outputs": [
        {
          "internalType": "contract ISupernets2Bridge",
          "name": "",
          "type": "address"
        }
      ],
      "stateMutability": "view",
      "type": "function"
    },
    {
      "inputs": [],
      "name": "calculateRewardPerBatch",
      "outputs": [
        {
          "internalType": "uint256",
          "name": "",
          "type": "uint256"
        }
      ],
      "stateMutability": "view",
      "type": "function"
    },
    {
      "inputs": [],
      "name": "chainID",
      "outputs": [
        {
          "internalType": "uint64",
          "name": "",
          "type": "uint64"
        }
      ],
      "stateMutability": "view",
      "type": "function"
    },
    {
      "inputs": [
        {
          "internalType": "uint256",
          "name": "newStateRoot",
          "type": "uint256"
        }
      ],
      "name": "checkStateRootInsidePrime",
      "outputs": [
        {
          "internalType": "bool",
          "name": "",
          "type": "bool"
        }
      ],
      "stateMutability": "pure",
      "type": "function"
    },
    {
      "inputs": [
        {
          "internalType": "uint64",
          "name": "pendingStateNum",
          "type": "uint64"
        }
      ],
      "name": "consolidatePendingState",
      "outputs": [],
      "stateMutability": "nonpayable",
      "type": "function"
    },
    {
      "inputs": [],
      "name": "dataCommitteeAddress",
      "outputs": [
        {
          "internalType": "contract ISupernets2DataCommittee",
          "name": "",
          "type": "address"
        }
      ],
      "stateMutability": "view",
      "type": "function"
    },
    {
      "inputs": [],
      "name": "deactivateEmergencyState",
      "outputs": [],
      "stateMutability": "nonpayable",
      "type": "function"
    },
    {
      "inputs": [
        {
          "internalType": "bytes",
          "name": "transactions",
          "type": "bytes"
        },
        {
          "internalType": "uint256",
          "name": "maticAmount",
          "type": "uint256"
        }
      ],
      "name": "forceBatch",
      "outputs": [],
      "stateMutability": "nonpayable",
      "type": "function"
    },
    {
      "inputs": [],
      "name": "forceBatchTimeout",
      "outputs": [
        {
          "internalType": "uint64",
          "name": "",
          "type": "uint64"
        }
      ],
      "stateMutability": "view",
      "type": "function"
    },
    {
      "inputs": [
        {
          "internalType": "uint64",
          "name": "",
          "type": "uint64"
        }
      ],
      "name": "forcedBatches",
      "outputs": [
        {
          "internalType": "bytes32",
          "name": "",
          "type": "bytes32"
        }
      ],
      "stateMutability": "view",
      "type": "function"
    },
    {
      "inputs": [],
      "name": "forkID",
      "outputs": [
        {
          "internalType": "uint64",
          "name": "",
          "type": "uint64"
        }
      ],
      "stateMutability": "view",
      "type": "function"
    },
    {
      "inputs": [],
      "name": "getForcedBatchFee",
      "outputs": [
        {
          "internalType": "uint256",
          "name": "",
          "type": "uint256"
        }
      ],
      "stateMutability": "view",
      "type": "function"
    },
    {
      "inputs": [
        {
          "internalType": "uint64",
          "name": "initNumBatch",
          "type": "uint64"
        },
        {
          "internalType": "uint64",
          "name": "finalNewBatch",
          "type": "uint64"
        },
        {
          "internalType": "bytes32",
          "name": "newLocalExitRoot",
          "type": "bytes32"
        },
        {
          "internalType": "bytes32",
          "name": "oldStateRoot",
          "type": "bytes32"
        },
        {
          "internalType": "bytes32",
          "name": "newStateRoot",
          "type": "bytes32"
        }
      ],
      "name": "getInputSnarkBytes",
      "outputs": [
        {
          "internalType": "bytes",
          "name": "",
          "type": "bytes"
        }
      ],
      "stateMutability": "view",
      "type": "function"
    },
    {
      "inputs": [],
      "name": "getLastVerifiedBatch",
      "outputs": [
        {
          "internalType": "uint64",
          "name": "",
          "type": "uint64"
        }
      ],
      "stateMutability": "view",
      "type": "function"
    },
    {
      "inputs": [],
      "name": "globalExitRootManager",
      "outputs": [
        {
          "internalType": "contract ISupernets2GlobalExitRoot",
          "name": "",
          "type": "address"
        }
      ],
      "stateMutability": "view",
      "type": "function"
    },
    {
      "inputs": [
        {
          "components": [
            {
              "internalType": "address",
              "name": "admin",
              "type": "address"
            },
            {
              "internalType": "address",
              "name": "trustedSequencer",
              "type": "address"
            },
            {
              "internalType": "uint64",
              "name": "pendingStateTimeout",
              "type": "uint64"
            },
            {
              "internalType": "address",
              "name": "trustedAggregator",
              "type": "address"
            },
            {
              "internalType": "uint64",
              "name": "trustedAggregatorTimeout",
              "type": "uint64"
            }
          ],
          "internalType": "struct Supernets2.InitializePackedParameters",
          "name": "initializePackedParameters",
          "type": "tuple"
        },
        {
          "internalType": "bytes32",
          "name": "genesisRoot",
          "type": "bytes32"
        },
        {
          "internalType": "string",
          "name": "_trustedSequencerURL",
          "type": "string"
        },
        {
          "internalType": "string",
          "name": "_networkName",
          "type": "string"
        },
        {
          "internalType": "string",
          "name": "_version",
          "type": "string"
        }
      ],
      "name": "initialize",
      "outputs": [],
      "stateMutability": "nonpayable",
      "type": "function"
    },
    {
      "inputs": [],
      "name": "isEmergencyState",
      "outputs": [
        {
          "internalType": "bool",
          "name": "",
          "type": "bool"
        }
      ],
      "stateMutability": "view",
      "type": "function"
    },
    {
      "inputs": [],
      "name": "isForcedBatchDisallowed",
      "outputs": [
        {
          "internalType": "bool",
          "name": "",
          "type": "bool"
        }
      ],
      "stateMutability": "view",
      "type": "function"
    },
    {
      "inputs": [
        {
          "internalType": "uint64",
          "name": "pendingStateNum",
          "type": "uint64"
        }
      ],
      "name": "isPendingStateConsolidable",
      "outputs": [
        {
          "internalType": "bool",
          "name": "",
          "type": "bool"
        }
      ],
      "stateMutability": "view",
      "type": "function"
    },
    {
      "inputs": [],
      "name": "lastBatchSequenced",
      "outputs": [
        {
          "internalType": "uint64",
          "name": "",
          "type": "uint64"
        }
      ],
      "stateMutability": "view",
      "type": "function"
    },
    {
      "inputs": [],
      "name": "lastForceBatch",
      "outputs": [
        {
          "internalType": "uint64",
          "name": "",
          "type": "uint64"
        }
      ],
      "stateMutability": "view",
      "type": "function"
    },
    {
      "inputs": [],
      "name": "lastForceBatchSequenced",
      "outputs": [
        {
          "internalType": "uint64",
          "name": "",
          "type": "uint64"
        }
      ],
      "stateMutability": "view",
      "type": "function"
    },
    {
      "inputs": [],
      "name": "lastPendingState",
      "outputs": [
        {
          "internalType": "uint64",
          "name": "",
          "type": "uint64"
        }
      ],
      "stateMutability": "view",
      "type": "function"
    },
    {
      "inputs": [],
      "name": "lastPendingStateConsolidated",
      "outputs": [
        {
          "internalType": "uint64",
          "name": "",
          "type": "uint64"
        }
      ],
      "stateMutability": "view",
      "type": "function"
    },
    {
      "inputs": [],
      "name": "lastTimestamp",
      "outputs": [
        {
          "internalType": "uint64",
          "name": "",
          "type": "uint64"
        }
      ],
      "stateMutability": "view",
      "type": "function"
    },
    {
      "inputs": [],
      "name": "lastVerifiedBatch",
      "outputs": [
        {
          "internalType": "uint64",
          "name": "",
          "type": "uint64"
        }
      ],
      "stateMutability": "view",
      "type": "function"
    },
    {
      "inputs": [],
      "name": "matic",
      "outputs": [
        {
          "internalType": "contract IERC20Upgradeable",
          "name": "",
          "type": "address"
        }
      ],
      "stateMutability": "view",
      "type": "function"
    },
    {
      "inputs": [],
      "name": "multiplierBatchFee",
      "outputs": [
        {
          "internalType": "uint16",
          "name": "",
          "type": "uint16"
        }
      ],
      "stateMutability": "view",
      "type": "function"
    },
    {
      "inputs": [],
      "name": "networkName",
      "outputs": [
        {
          "internalType": "string",
          "name": "",
          "type": "string"
        }
      ],
      "stateMutability": "view",
      "type": "function"
    },
    {
      "inputs": [
        {
          "internalType": "uint64",
          "name": "initPendingStateNum",
          "type": "uint64"
        },
        {
          "internalType": "uint64",
          "name": "finalPendingStateNum",
          "type": "uint64"
        },
        {
          "internalType": "uint64",
          "name": "initNumBatch",
          "type": "uint64"
        },
        {
          "internalType": "uint64",
          "name": "finalNewBatch",
          "type": "uint64"
        },
        {
          "internalType": "bytes32",
          "name": "newLocalExitRoot",
          "type": "bytes32"
        },
        {
          "internalType": "bytes32",
          "name": "newStateRoot",
          "type": "bytes32"
        },
        {
          "internalType": "bytes",
          "name": "proof",
          "type": "bytes"
        }
      ],
      "name": "overridePendingState",
      "outputs": [],
      "stateMutability": "nonpayable",
      "type": "function"
    },
    {
      "inputs": [],
      "name": "owner",
      "outputs": [
        {
          "internalType": "address",
          "name": "",
          "type": "address"
        }
      ],
      "stateMutability": "view",
      "type": "function"
    },
    {
      "inputs": [],
      "name": "pendingAdmin",
      "outputs": [
        {
          "internalType": "address",
          "name": "",
          "type": "address"
        }
      ],
      "stateMutability": "view",
      "type": "function"
    },
    {
      "inputs": [],
      "name": "pendingStateTimeout",
      "outputs": [
        {
          "internalType": "uint64",
          "name": "",
          "type": "uint64"
        }
      ],
      "stateMutability": "view",
      "type": "function"
    },
    {
      "inputs": [
        {
          "internalType": "uint256",
          "name": "",
          "type": "uint256"
        }
      ],
      "name": "pendingStateTransitions",
      "outputs": [
        {
          "internalType": "uint64",
          "name": "timestamp",
          "type": "uint64"
        },
        {
          "internalType": "uint64",
          "name": "lastVerifiedBatch",
          "type": "uint64"
        },
        {
          "internalType": "bytes32",
          "name": "exitRoot",
          "type": "bytes32"
        },
        {
          "internalType": "bytes32",
          "name": "stateRoot",
          "type": "bytes32"
        }
      ],
      "stateMutability": "view",
      "type": "function"
    },
    {
      "inputs": [
        {
          "internalType": "uint64",
          "name": "initPendingStateNum",
          "type": "uint64"
        },
        {
          "internalType": "uint64",
          "name": "finalPendingStateNum",
          "type": "uint64"
        },
        {
          "internalType": "uint64",
          "name": "initNumBatch",
          "type": "uint64"
        },
        {
          "internalType": "uint64",
          "name": "finalNewBatch",
          "type": "uint64"
        },
        {
          "internalType": "bytes32",
          "name": "newLocalExitRoot",
          "type": "bytes32"
        },
        {
          "internalType": "bytes32",
          "name": "newStateRoot",
          "type": "bytes32"
        },
        {
          "internalType": "bytes",
          "name": "proof",
          "type": "bytes"
        }
      ],
      "name": "proveNonDeterministicPendingState",
      "outputs": [],
      "stateMutability": "nonpayable",
      "type": "function"
    },
    {
      "inputs": [],
      "name": "renounceOwnership",
      "outputs": [],
      "stateMutability": "nonpayable",
      "type": "function"
    },
    {
      "inputs": [],
      "name": "rollupVerifier",
      "outputs": [
        {
          "internalType": "contract IVerifierRollup",
          "name": "",
          "type": "address"
        }
      ],
      "stateMutability": "view",
      "type": "function"
    },
    {
      "inputs": [
        {
          "components": [
            {
              "internalType": "bytes",
              "name": "transactionsHash",
              "type": "bytes"
            },
            {
              "internalType": "bytes32",
              "name": "globalExitRoot",
              "type": "bytes32"
            },
            {
              "internalType": "uint64",
              "name": "timestamp",
              "type": "uint64"
            },
            {
              "internalType": "uint64",
              "name": "minForcedTimestamp",
              "type": "uint64"
            }
          ],
          "internalType": "struct Supernets2.BatchData[]",
          "name": "batches",
          "type": "tuple[]"
        },
        {
          "internalType": "address",
          "name": "l2Coinbase",
          "type": "address"
        },
        {
          "internalType": "bytes",
          "name": "signaturesAndAddrs",
          "type": "bytes"
        }
      ],
      "name": "sequenceBatches",
      "outputs": [],
      "stateMutability": "nonpayable",
      "type": "function"
    },
    {
      "inputs": [
        {
          "components": [
            {
              "internalType": "bytes",
              "name": "transactions",
              "type": "bytes"
            },
            {
              "internalType": "bytes32",
              "name": "globalExitRoot",
              "type": "bytes32"
            },
            {
              "internalType": "uint64",
              "name": "minForcedTimestamp",
              "type": "uint64"
            }
          ],
          "internalType": "struct Supernets2.ForcedBatchData[]",
          "name": "batches",
          "type": "tuple[]"
        }
      ],
      "name": "sequenceForceBatches",
      "outputs": [],
      "stateMutability": "nonpayable",
      "type": "function"
    },
    {
      "inputs": [
        {
          "internalType": "uint64",
          "name": "",
          "type": "uint64"
        }
      ],
      "name": "sequencedBatches",
      "outputs": [
        {
          "internalType": "bytes32",
          "name": "accInputHash",
          "type": "bytes32"
        },
        {
          "internalType": "uint64",
          "name": "sequencedTimestamp",
          "type": "uint64"
        },
        {
          "internalType": "uint64",
          "name": "previousLastBatchSequenced",
          "type": "uint64"
        }
      ],
      "stateMutability": "view",
      "type": "function"
    },
    {
      "inputs": [
        {
          "internalType": "uint64",
          "name": "newforceBatchTimeout",
          "type": "uint64"
        }
      ],
      "name": "setForceBatchTimeout",
      "outputs": [],
      "stateMutability": "nonpayable",
      "type": "function"
    },
    {
      "inputs": [
        {
          "internalType": "uint16",
          "name": "newMultiplierBatchFee",
          "type": "uint16"
        }
      ],
      "name": "setMultiplierBatchFee",
      "outputs": [],
      "stateMutability": "nonpayable",
      "type": "function"
    },
    {
      "inputs": [
        {
          "internalType": "uint64",
          "name": "newPendingStateTimeout",
          "type": "uint64"
        }
      ],
      "name": "setPendingStateTimeout",
      "outputs": [],
      "stateMutability": "nonpayable",
      "type": "function"
    },
    {
      "inputs": [
        {
          "internalType": "address",
          "name": "newTrustedAggregator",
          "type": "address"
        }
      ],
      "name": "setTrustedAggregator",
      "outputs": [],
      "stateMutability": "nonpayable",
      "type": "function"
    },
    {
      "inputs": [
        {
          "internalType": "uint64",
          "name": "newTrustedAggregatorTimeout",
          "type": "uint64"
        }
      ],
      "name": "setTrustedAggregatorTimeout",
      "outputs": [],
      "stateMutability": "nonpayable",
      "type": "function"
    },
    {
      "inputs": [
        {
          "internalType": "address",
          "name": "newTrustedSequencer",
          "type": "address"
        }
      ],
      "name": "setTrustedSequencer",
      "outputs": [],
      "stateMutability": "nonpayable",
      "type": "function"
    },
    {
      "inputs": [
        {
          "internalType": "string",
          "name": "newTrustedSequencerURL",
          "type": "string"
        }
      ],
      "name": "setTrustedSequencerURL",
      "outputs": [],
      "stateMutability": "nonpayable",
      "type": "function"
    },
    {
      "inputs": [
        {
          "internalType": "uint64",
          "name": "newVerifyBatchTimeTarget",
          "type": "uint64"
        }
      ],
      "name": "setVerifyBatchTimeTarget",
      "outputs": [],
      "stateMutability": "nonpayable",
      "type": "function"
    },
    {
      "inputs": [
        {
          "internalType": "address",
          "name": "newPendingAdmin",
          "type": "address"
        }
      ],
      "name": "transferAdminRole",
      "outputs": [],
      "stateMutability": "nonpayable",
      "type": "function"
    },
    {
      "inputs": [
        {
          "internalType": "address",
          "name": "newOwner",
          "type": "address"
        }
      ],
      "name": "transferOwnership",
      "outputs": [],
      "stateMutability": "nonpayable",
      "type": "function"
    },
    {
      "inputs": [],
      "name": "trustedAggregator",
      "outputs": [
        {
          "internalType": "address",
          "name": "",
          "type": "address"
        }
      ],
      "stateMutability": "view",
      "type": "function"
    },
    {
      "inputs": [],
      "name": "trustedAggregatorTimeout",
      "outputs": [
        {
          "internalType": "uint64",
          "name": "",
          "type": "uint64"
        }
      ],
      "stateMutability": "view",
      "type": "function"
    },
    {
      "inputs": [],
      "name": "trustedSequencer",
      "outputs": [
        {
          "internalType": "address",
          "name": "",
          "type": "address"
        }
      ],
      "stateMutability": "view",
      "type": "function"
    },
    {
      "inputs": [],
      "name": "trustedSequencerURL",
      "outputs": [
        {
          "internalType": "string",
          "name": "",
          "type": "string"
        }
      ],
      "stateMutability": "view",
      "type": "function"
    },
    {
      "inputs": [],
      "name": "verifyBatchTimeTarget",
      "outputs": [
        {
          "internalType": "uint64",
          "name": "",
          "type": "uint64"
        }
      ],
      "stateMutability": "view",
      "type": "function"
    },
    {
      "inputs": [
        {
          "internalType": "uint64",
          "name": "pendingStateNum",
          "type": "uint64"
        },
        {
          "internalType": "uint64",
          "name": "initNumBatch",
          "type": "uint64"
        },
        {
          "internalType": "uint64",
          "name": "finalNewBatch",
          "type": "uint64"
        },
        {
          "internalType": "bytes32",
          "name": "newLocalExitRoot",
          "type": "bytes32"
        },
        {
          "internalType": "bytes32",
          "name": "newStateRoot",
          "type": "bytes32"
        },
        {
          "internalType": "bytes",
          "name": "proof",
          "type": "bytes"
        }
      ],
      "name": "verifyBatches",
      "outputs": [],
      "stateMutability": "nonpayable",
      "type": "function"
    },
    {
      "inputs": [
        {
          "internalType": "uint64",
          "name": "pendingStateNum",
          "type": "uint64"
        },
        {
          "internalType": "uint64",
          "name": "initNumBatch",
          "type": "uint64"
        },
        {
          "internalType": "uint64",
          "name": "finalNewBatch",
          "type": "uint64"
        },
        {
          "internalType": "bytes32",
          "name": "newLocalExitRoot",
          "type": "bytes32"
        },
        {
          "internalType": "bytes32",
          "name": "newStateRoot",
          "type": "bytes32"
        },
        {
          "internalType": "bytes",
          "name": "proof",
          "type": "bytes"
        }
      ],
      "name": "verifyBatchesTrustedAggregator",
      "outputs": [],
      "stateMutability": "nonpayable",
      "type": "function"
    }
  ],
  "bytecode": "0x6101606040523480156200001257600080fd5b506040516200621b3803806200621b8339810160408190526200003591620000ac565b6001600160a01b0396871660c05294861660805292851660a05290841660e052909216610100526001600160401b039182166101205216610140526200014f565b6001600160a01b03811681146200008c57600080fd5b50565b80516001600160401b0381168114620000a757600080fd5b919050565b600080600080600080600060e0888a031215620000c857600080fd5b8751620000d58162000076565b6020890151909750620000e88162000076565b6040890151909650620000fb8162000076565b60608901519095506200010e8162000076565b6080890151909450620001218162000076565b92506200013160a089016200008f565b91506200014160c089016200008f565b905092959891949750929550565b60805160a05160c05160e051610100516101205161014051615fec6200022f600039600081816106b501528181610ed10152612f770152600081816108220152610ea70152600081816105ad0152611f230152600081816107d50152818161217301528181613611015261426d01526000818161098e0152818161154501528181611d68015281816127f1015281816137ae01528181613a09015261443d015260008181610a4e0152818161415a01526147a90152600081816108de0152818161214101528181612348015281816139dd01526148980152615fec6000f3fe608060405234801561001057600080fd5b50600436106103c55760003560e01c8063841b24d7116101ff578063c89e42df1161011a578063e7a7ed02116100ad578063f14916d61161007c578063f14916d614610ab0578063f2fde38b14610ac3578063f851a44014610ad6578063f8b823e414610af657600080fd5b8063e7a7ed0214610a19578063e8bf92ed14610a49578063eaeb077b14610a70578063ed6b010414610a8357600080fd5b8063d8d1091b116100e9578063d8d1091b146109c3578063d939b315146109d6578063dbc16976146109fe578063e6ad707e14610a0657600080fd5b8063c89e42df14610947578063cfa8ed471461095a578063d02103ca14610989578063d2e129f9146109b057600080fd5b8063ada8f91911610192578063b6b0b09711610161578063b6b0b097146108d9578063ba58ae3914610900578063c0ed84e014610913578063c754c7ed1461091b57600080fd5b8063ada8f9191461080a578063adc879e91461081d578063afd23cbe14610844578063b4d63f581461087257600080fd5b80639c9f3dfe116101ce5780639c9f3dfe146107aa578063a066215c146107bd578063a3c573eb146107d0578063a50a164b146107f757600080fd5b8063841b24d71461074c5780638c3d73011461077c5780638da5cb5b1461078457806399f5634e146107a257600080fd5b80634a910e6a116102ef5780636b8616ce116102825780637eac5dc2116102515780637eac5dc2146106895780637fcb36531461069c578063831c7ead146106b0578063837a4738146106d757600080fd5b80636b8616ce1461063b5780636ff512cc1461065b578063715018a61461066e5780637215541a1461067657600080fd5b80635392c5e0116102be5780635392c5e0146105f5578063542028d5146106235780635ec919581461062b578063604691691461063357600080fd5b80634a910e6a146105955780634df61d24146105a85780634e487706146105cf5780634fd70464146105e257600080fd5b80632678224711610367578063423fa85611610336578063423fa856146105195780634560526714610539578063458c0477146105615780634a1a89a71461057557600080fd5b8063267822471461048257806329878983146104c7578063383b3be8146104f3578063394218e91461050657600080fd5b806315064c96116103a357806315064c961461042b5780631816b7e51461044857806319d8ac611461045b578063220d78991461046f57600080fd5b80630808270c146103ca5780630a0d9fbe146103df578063107bf28c14610416575b600080fd5b6103dd6103d83660046152c3565b610aff565b005b606f546103f890610100900467ffffffffffffffff1681565b60405167ffffffffffffffff90911681526020015b60405180910390f35b61041e610bb2565b60405161040d91906153ca565b606f546104389060ff1681565b604051901515815260200161040d565b6103dd6104563660046153e4565b610c40565b6073546103f89067ffffffffffffffff1681565b61041e61047d366004615408565b610d58565b607b546104a29073ffffffffffffffffffffffffffffffffffffffff1681565b60405173ffffffffffffffffffffffffffffffffffffffff909116815260200161040d565b6074546104a29068010000000000000000900473ffffffffffffffffffffffffffffffffffffffff1681565b610438610501366004615455565b610f2f565b6103dd610514366004615455565b610f85565b6073546103f89068010000000000000000900467ffffffffffffffff1681565b6073546103f890700100000000000000000000000000000000900467ffffffffffffffff1681565b6079546103f89067ffffffffffffffff1681565b6079546103f89068010000000000000000900467ffffffffffffffff1681565b6103dd6105a3366004615455565b611109565b6104a27f000000000000000000000000000000000000000000000000000000000000000081565b6103dd6105dd366004615455565b6111bc565b6103dd6105f0366004615470565b611340565b610615610603366004615455565b60756020526000908152604090205481565b60405190815260200161040d565b61041e6116d6565b6103dd6116e3565b6106156117e3565b610615610649366004615455565b60716020526000908152604090205481565b6103dd61066936600461551d565b6117f9565b6103dd6118ce565b6103dd610684366004615455565b6118e2565b6103dd61069736600461557d565b611a52565b6074546103f89067ffffffffffffffff1681565b6103f87f000000000000000000000000000000000000000000000000000000000000000081565b6107206106e5366004615601565b60786020526000908152604090208054600182015460029092015467ffffffffffffffff808316936801000000000000000090930416919084565b6040805167ffffffffffffffff958616815294909316602085015291830152606082015260800161040d565b6079546103f8907801000000000000000000000000000000000000000000000000900467ffffffffffffffff1681565b6103dd612234565b60335473ffffffffffffffffffffffffffffffffffffffff166104a2565b610615612300565b6103dd6107b8366004615455565b612459565b6103dd6107cb366004615455565b6125d5565b6104a27f000000000000000000000000000000000000000000000000000000000000000081565b6103dd610805366004615470565b6126db565b6103dd61081836600461551d565b6128a0565b6103f87f000000000000000000000000000000000000000000000000000000000000000081565b606f5461085f906901000000000000000000900461ffff1681565b60405161ffff909116815260200161040d565b6108b3610880366004615455565b6072602052600090815260409020805460019091015467ffffffffffffffff808216916801000000000000000090041683565b6040805193845267ffffffffffffffff928316602085015291169082015260600161040d565b6104a27f000000000000000000000000000000000000000000000000000000000000000081565b61043861090e366004615601565b612964565b6103f86129ee565b607b546103f89074010000000000000000000000000000000000000000900467ffffffffffffffff1681565b6103dd6109553660046156f4565b612a43565b606f546104a2906b010000000000000000000000900473ffffffffffffffffffffffffffffffffffffffff1681565b6104a27f000000000000000000000000000000000000000000000000000000000000000081565b6103dd6109be366004615729565b612ad0565b6103dd6109d13660046157dc565b61301c565b6079546103f890700100000000000000000000000000000000900467ffffffffffffffff1681565b6103dd6135be565b6103dd610a143660046152c3565b613697565b6073546103f8907801000000000000000000000000000000000000000000000000900467ffffffffffffffff1681565b6104a27f000000000000000000000000000000000000000000000000000000000000000081565b6103dd610a7e36600461581e565b6138a7565b607b54610438907c0100000000000000000000000000000000000000000000000000000000900460ff1681565b6103dd610abe36600461551d565b613c9d565b6103dd610ad136600461551d565b613d6f565b607a546104a29073ffffffffffffffffffffffffffffffffffffffff1681565b61061560705481565b606f5460ff1615610b3c576040517f2f0047fc00000000000000000000000000000000000000000000000000000000815260040160405180910390fd5b610b4c8888888888888888613e23565b67ffffffffffffffff85166000908152607560209081526040918290205482519081529081018590527f1f44c21118c4603cfb4e1b621dbcfa2b73efcececee2b99b620b2953d33a7010910160405180910390a1610ba861426b565b5050505050505050565b60778054610bbf9061586a565b80601f0160208091040260200160405190810160405280929190818152602001828054610beb9061586a565b8015610c385780601f10610c0d57610100808354040283529160200191610c38565b820191906000526020600020905b815481529060010190602001808311610c1b57829003601f168201915b505050505081565b607a5473ffffffffffffffffffffffffffffffffffffffff163314610c91576040517f4755657900000000000000000000000000000000000000000000000000000000815260040160405180910390fd5b6103e88161ffff161080610caa57506103ff8161ffff16115b15610ce1576040517f4c2533c800000000000000000000000000000000000000000000000000000000815260040160405180910390fd5b606f80547fffffffffffffffffffffffffffffffffffffffffff0000ffffffffffffffffff16690100000000000000000061ffff8416908102919091179091556040519081527f7019933d795eba185c180209e8ae8bffbaa25bcef293364687702c31f4d302c5906020015b60405180910390a150565b67ffffffffffffffff8086166000818152607260205260408082205493881682529020546060929115801590610d8c575081155b15610dc3576040517f6818c29e00000000000000000000000000000000000000000000000000000000815260040160405180910390fd5b80610dfa576040517f66385b5100000000000000000000000000000000000000000000000000000000815260040160405180910390fd5b610e0384612964565b610e39576040517f176b913c00000000000000000000000000000000000000000000000000000000815260040160405180910390fd5b604080517fffffffffffffffffffffffffffffffffffffffff0000000000000000000000003360601b166020820152603481019690965260548601929092527fffffffffffffffff00000000000000000000000000000000000000000000000060c098891b811660748701527f0000000000000000000000000000000000000000000000000000000000000000891b8116607c8701527f0000000000000000000000000000000000000000000000000000000000000000891b81166084870152608c86019490945260ac85015260cc840194909452509290931b90911660ec830152805180830360d401815260f4909201905290565b60795467ffffffffffffffff82811660009081526078602052604081205490924292610f7392700100000000000000000000000000000000909204811691166158ec565b67ffffffffffffffff16111592915050565b607a5473ffffffffffffffffffffffffffffffffffffffff163314610fd6576040517f4755657900000000000000000000000000000000000000000000000000000000815260040160405180910390fd5b62093a8067ffffffffffffffff8216111561101d576040517f1d06e87900000000000000000000000000000000000000000000000000000000815260040160405180910390fd5b606f5460ff1661108c5760795467ffffffffffffffff780100000000000000000000000000000000000000000000000090910481169082161061108c576040517f401636df00000000000000000000000000000000000000000000000000000000815260040160405180910390fd5b6079805477ffffffffffffffffffffffffffffffffffffffffffffffff16780100000000000000000000000000000000000000000000000067ffffffffffffffff8416908102919091179091556040519081527f1f4fa24c2e4bad19a7f3ec5c5485f70d46c798461c2e684f55bbd0fc661373a190602001610d4d565b60745468010000000000000000900473ffffffffffffffffffffffffffffffffffffffff1633146111b057606f5460ff1615611171576040517f2f0047fc00000000000000000000000000000000000000000000000000000000815260040160405180910390fd5b61117a81610f2f565b6111b0576040517f0ce9e4a200000000000000000000000000000000000000000000000000000000815260040160405180910390fd5b6111b9816142f3565b50565b607a5473ffffffffffffffffffffffffffffffffffffffff16331461120d576040517f4755657900000000000000000000000000000000000000000000000000000000815260040160405180910390fd5b62093a8067ffffffffffffffff82161115611254576040517ff5e37f2f00000000000000000000000000000000000000000000000000000000815260040160405180910390fd5b606f5460ff166112bf57607b5467ffffffffffffffff740100000000000000000000000000000000000000009091048116908216106112bf576040517ff5e37f2f00000000000000000000000000000000000000000000000000000000815260040160405180910390fd5b607b80547fffffffff0000000000000000ffffffffffffffffffffffffffffffffffffffff167401000000000000000000000000000000000000000067ffffffffffffffff8416908102919091179091556040519081527fa7eb6cb8a613eb4e8bddc1ac3d61ec6cf10898760f0b187bcca794c6ca6fa40b90602001610d4d565b606f5460ff161561137d576040517f2f0047fc00000000000000000000000000000000000000000000000000000000815260040160405180910390fd5b60795467ffffffffffffffff86811660009081526072602052604090206001015442926113ca927801000000000000000000000000000000000000000000000000909104811691166158ec565b67ffffffffffffffff16111561140c576040517f8a0704d300000000000000000000000000000000000000000000000000000000815260040160405180910390fd5b6103e86114198787615914565b67ffffffffffffffff16111561145b576040517fb59f753a00000000000000000000000000000000000000000000000000000000815260040160405180910390fd5b61146a87878787878787614506565b611473856148bf565b607954700100000000000000000000000000000000900467ffffffffffffffff166000036115bb57607480547fffffffffffffffffffffffffffffffffffffffffffffffff00000000000000001667ffffffffffffffff8781169182179092556000908152607560205260409020849055607954161561151657607980547fffffffffffffffffffffffffffffffff000000000000000000000000000000001690555b6040517f33d6247d000000000000000000000000000000000000000000000000000000008152600481018590527f000000000000000000000000000000000000000000000000000000000000000073ffffffffffffffffffffffffffffffffffffffff16906333d6247d90602401600060405180830381600087803b15801561159e57600080fd5b505af11580156115b2573d6000803e3d6000fd5b5050505061168b565b6115c3614a9f565b6079805467ffffffffffffffff169060006115dd83615935565b825467ffffffffffffffff9182166101009390930a92830292820219169190911790915560408051608081018252428316815288831660208083019182528284018a8152606084018a815260795487166000908152607890935294909120925183549251861668010000000000000000027fffffffffffffffffffffffffffffffff000000000000000000000000000000009093169516949094171781559151600183015551600290910155505b604051838152339067ffffffffffffffff8716907f9c72852172521097ba7e1482e6b44b351323df0155f97f4ea18fcec28e1f5966906020015b60405180910390a350505050505050565b60768054610bbf9061586a565b607a5473ffffffffffffffffffffffffffffffffffffffff163314611734576040517f4755657900000000000000000000000000000000000000000000000000000000815260040160405180910390fd5b607b547c0100000000000000000000000000000000000000000000000000000000900460ff16611790576040517ff6ba91a100000000000000000000000000000000000000000000000000000000815260040160405180910390fd5b607b80547fffffff00ffffffffffffffffffffffffffffffffffffffffffffffffffffffff1690556040517f854dd6ce5a1445c4c54388b21cffd11cf5bba1b9e763aec48ce3da75d617412f90600090a1565b600060705460646117f4919061595c565b905090565b607a5473ffffffffffffffffffffffffffffffffffffffff16331461184a576040517f4755657900000000000000000000000000000000000000000000000000000000815260040160405180910390fd5b606f80547fff0000000000000000000000000000000000000000ffffffffffffffffffffff166b01000000000000000000000073ffffffffffffffffffffffffffffffffffffffff8416908102919091179091556040519081527ff54144f9611984021529f814a1cb6a41e22c58351510a0d9f7e822618abb9cc090602001610d4d565b6118d6614b50565b6118e06000614bd1565b565b60335473ffffffffffffffffffffffffffffffffffffffff163314611a4a57600061190b6129ee565b90508067ffffffffffffffff168267ffffffffffffffff161161195a576040517f812a372d00000000000000000000000000000000000000000000000000000000815260040160405180910390fd5b60735467ffffffffffffffff68010000000000000000909104811690831611806119a0575067ffffffffffffffff80831660009081526072602052604090206001015416155b156119d7576040517f98c5c01400000000000000000000000000000000000000000000000000000000815260040160405180910390fd5b67ffffffffffffffff8083166000908152607260205260409020600101544291611a069162093a8091166158ec565b67ffffffffffffffff161115611a48576040517fd257555a00000000000000000000000000000000000000000000000000000000815260040160405180910390fd5b505b6111b961426b565b606f5460ff1615611a8f576040517f2f0047fc00000000000000000000000000000000000000000000000000000000815260040160405180910390fd5b606f546b010000000000000000000000900473ffffffffffffffffffffffffffffffffffffffff163314611aef576040517f11e7be1500000000000000000000000000000000000000000000000000000000815260040160405180910390fd5b836000819003611b2b576040517fcb591a5f00000000000000000000000000000000000000000000000000000000815260040160405180910390fd5b6103e8811115611b67576040517fb59f753a00000000000000000000000000000000000000000000000000000000815260040160405180910390fd5b60735467ffffffffffffffff6801000000000000000082048116600081815260726020526040812054838516949293700100000000000000000000000000000000909304909216919082905b86811015611ee55760008c8c83818110611bcf57611bcf615979565b9050602002810190611be191906159a8565b611bea906159e6565b606081015190915067ffffffffffffffff1615611d255784611c0b81615935565b9550506000816000015182602001518360600151604051602001611c3193929190615a73565b604080517fffffffffffffffffffffffffffffffffffffffffffffffffffffffffffffffe0818403018152918152815160209283012067ffffffffffffffff8916600090815260719093529120549091508114611cba576040517fce3d755e00000000000000000000000000000000000000000000000000000000815260040160405180910390fd5b67ffffffffffffffff8087166000908152607160205260408082209190915560608401519084015190821691161015611d1f576040517f7f7ab87200000000000000000000000000000000000000000000000000000000815260040160405180910390fd5b50611e23565b602081015115801590611dec575060208101516040517f257b363200000000000000000000000000000000000000000000000000000000815260048101919091527f000000000000000000000000000000000000000000000000000000000000000073ffffffffffffffffffffffffffffffffffffffff169063257b3632906024016020604051808303816000875af1158015611dc6573d6000803e3d6000fd5b505050506040513d601f19601f82011682018060405250810190611dea9190615abf565b155b15611e23576040517f73bd668d00000000000000000000000000000000000000000000000000000000815260040160405180910390fd5b8667ffffffffffffffff16816040015167ffffffffffffffff161080611e56575042816040015167ffffffffffffffff16115b15611e8d576040517fea82791600000000000000000000000000000000000000000000000000000000815260040160405180910390fd5b838160000151826020015183604001518e604051602001611eb2959493929190615ad8565b60405160208183030381529060405280519060200120935080604001519650508080611edd90615b5c565b915050611bb3565b506040517fc7a823e000000000000000000000000000000000000000000000000000000000815273ffffffffffffffffffffffffffffffffffffffff7f0000000000000000000000000000000000000000000000000000000000000000169063c7a823e090611f5c9085908c908c90600401615bdd565b60006040518083038186803b158015611f7457600080fd5b505afa158015611f88573d6000803e3d6000fd5b505050508584611f9891906158ec565b60735490945067ffffffffffffffff780100000000000000000000000000000000000000000000000090910481169084161115612001576040517fc630a00d00000000000000000000000000000000000000000000000000000000815260040160405180910390fd5b600061200d8285615914565b6120219067ffffffffffffffff1688615c00565b604080516060810182528581524267ffffffffffffffff908116602080840191825260738054680100000000000000009081900485168688019081528d861660008181526072909552979093209551865592516001909501805492519585167fffffffffffffffffffffffffffffffff000000000000000000000000000000009384161795851684029590951790945583548c841691161793029290921790559091508281169085161461211757607380547fffffffffffffffff0000000000000000ffffffffffffffffffffffffffffffff1670010000000000000000000000000000000067ffffffffffffffff8716021790555b61216933308360705461212a919061595c565b73ffffffffffffffffffffffffffffffffffffffff7f000000000000000000000000000000000000000000000000000000000000000016929190614c48565b612171614a9f565b7f000000000000000000000000000000000000000000000000000000000000000073ffffffffffffffffffffffffffffffffffffffff166379e2cf976040518163ffffffff1660e01b8152600401600060405180830381600087803b1580156121d957600080fd5b505af11580156121ed573d6000803e3d6000fd5b505060405167ffffffffffffffff881692507f303446e6a8cb73c83dff421c0b1d5e5ce0719dab1bff13660fc254e58cc17fce9150600090a2505050505050505050505050565b607b5473ffffffffffffffffffffffffffffffffffffffff163314612285576040517fd1ec4b2300000000000000000000000000000000000000000000000000000000815260040160405180910390fd5b607b54607a80547fffffffffffffffffffffffff00000000000000000000000000000000000000001673ffffffffffffffffffffffffffffffffffffffff90921691821790556040519081527f056dc487bbf0795d0bbb1b4f0af523a855503cff740bfb4d5475f7a90c091e8e9060200160405180910390a1565b6040517f70a08231000000000000000000000000000000000000000000000000000000008152306004820152600090819073ffffffffffffffffffffffffffffffffffffffff7f000000000000000000000000000000000000000000000000000000000000000016906370a0823190602401602060405180830381865afa15801561238f573d6000803e3d6000fd5b505050506040513d601f19601f820116820180604052508101906123b39190615abf565b905060006123bf6129ee565b60735467ffffffffffffffff6801000000000000000082048116916124179170010000000000000000000000000000000082048116917801000000000000000000000000000000000000000000000000900416615914565b61242191906158ec565b61242b9190615914565b67ffffffffffffffff169050806000036124485760009250505090565b6124528183615c42565b9250505090565b607a5473ffffffffffffffffffffffffffffffffffffffff1633146124aa576040517f4755657900000000000000000000000000000000000000000000000000000000815260040160405180910390fd5b62093a8067ffffffffffffffff821611156124f1576040517fcc96507000000000000000000000000000000000000000000000000000000000815260040160405180910390fd5b606f5460ff166125585760795467ffffffffffffffff700100000000000000000000000000000000909104811690821610612558576040517f48a05a9000000000000000000000000000000000000000000000000000000000815260040160405180910390fd5b607980547fffffffffffffffff0000000000000000ffffffffffffffffffffffffffffffff1670010000000000000000000000000000000067ffffffffffffffff8416908102919091179091556040519081527fc4121f4e22c69632ebb7cf1f462be0511dc034f999b52013eddfb24aab765c7590602001610d4d565b607a5473ffffffffffffffffffffffffffffffffffffffff163314612626576040517f4755657900000000000000000000000000000000000000000000000000000000815260040160405180910390fd5b620151808167ffffffffffffffff16111561266d576040517fe067dfe800000000000000000000000000000000000000000000000000000000815260040160405180910390fd5b606f80547fffffffffffffffffffffffffffffffffffffffffffffff0000000000000000ff1661010067ffffffffffffffff8416908102919091179091556040519081527f1b023231a1ab6b5d93992f168fb44498e1a7e64cef58daff6f1c216de6a68c2890602001610d4d565b60745468010000000000000000900473ffffffffffffffffffffffffffffffffffffffff163314612738576040517fbbcbbc0500000000000000000000000000000000000000000000000000000000815260040160405180910390fd5b61274787878787878787614506565b607480547fffffffffffffffffffffffffffffffffffffffffffffffff00000000000000001667ffffffffffffffff878116918217909255600090815260756020526040902084905560795416156127c257607980547fffffffffffffffffffffffffffffffff000000000000000000000000000000001690555b6040517f33d6247d000000000000000000000000000000000000000000000000000000008152600481018590527f000000000000000000000000000000000000000000000000000000000000000073ffffffffffffffffffffffffffffffffffffffff16906333d6247d90602401600060405180830381600087803b15801561284a57600080fd5b505af115801561285e573d6000803e3d6000fd5b505060405185815233925067ffffffffffffffff881691507fcb339b570a7f0b25afa7333371ff11192092a0aeace12b671f4c212f2815c6fe906020016116c5565b607a5473ffffffffffffffffffffffffffffffffffffffff1633146128f1576040517f4755657900000000000000000000000000000000000000000000000000000000815260040160405180910390fd5b607b80547fffffffffffffffffffffffff00000000000000000000000000000000000000001673ffffffffffffffffffffffffffffffffffffffff83169081179091556040519081527fa5b56b7906fd0a20e3f35120dd8343db1e12e037a6c90111c7e42885e82a1ce690602001610d4d565b600067ffffffff0000000167ffffffffffffffff831610801561299c575067ffffffff00000001604083901c67ffffffffffffffff16105b80156129bd575067ffffffff00000001608083901c67ffffffffffffffff16105b80156129d4575067ffffffff0000000160c083901c105b156129e157506001919050565b506000919050565b919050565b60795460009067ffffffffffffffff1615612a32575060795467ffffffffffffffff9081166000908152607860205260409020546801000000000000000090041690565b5060745467ffffffffffffffff1690565b607a5473ffffffffffffffffffffffffffffffffffffffff163314612a94576040517f4755657900000000000000000000000000000000000000000000000000000000815260040160405180910390fd5b6076612aa08282615ca4565b507f6b8f723a4c7a5335cafae8a598a0aa0301be1387c037dccc085b62add6448b2081604051610d4d91906153ca565b600054610100900460ff1615808015612af05750600054600160ff909116105b80612b0a5750303b158015612b0a575060005460ff166001145b612b9b576040517f08c379a000000000000000000000000000000000000000000000000000000000815260206004820152602e60248201527f496e697469616c697a61626c653a20636f6e747261637420697320616c72656160448201527f647920696e697469616c697a656400000000000000000000000000000000000060648201526084015b60405180910390fd5b600080547fffffffffffffffffffffffffffffffffffffffffffffffffffffffffffffff001660011790558015612bf957600080547fffffffffffffffffffffffffffffffffffffffffffffffffffffffffffff00ff166101001790555b612c06602088018861551d565b607a80547fffffffffffffffffffffffff00000000000000000000000000000000000000001673ffffffffffffffffffffffffffffffffffffffff92909216919091179055612c5b604088016020890161551d565b606f805473ffffffffffffffffffffffffffffffffffffffff929092166b010000000000000000000000027fff0000000000000000000000000000000000000000ffffffffffffffffffffff909216919091179055612cc0608088016060890161551d565b6074805473ffffffffffffffffffffffffffffffffffffffff9290921668010000000000000000027fffffffff0000000000000000000000000000000000000000ffffffffffffffff9092169190911790556000805260756020527ff9e3fbf150b7a0077118526f473c53cb4734f166167e2c6213e3567dd390b4ad8690556076612d4b8682615ca4565b506077612d588582615ca4565b5062093a80612d6d6060890160408a01615455565b67ffffffffffffffff161115612daf576040517fcc96507000000000000000000000000000000000000000000000000000000000815260040160405180910390fd5b612dbf6060880160408901615455565b6079805467ffffffffffffffff92909216700100000000000000000000000000000000027fffffffffffffffff0000000000000000ffffffffffffffffffffffffffffffff90921691909117905562093a80612e2160a0890160808a01615455565b67ffffffffffffffff161115612e63576040517f1d06e87900000000000000000000000000000000000000000000000000000000815260040160405180910390fd5b612e7360a0880160808901615455565b6079805477ffffffffffffffffffffffffffffffffffffffffffffffff16780100000000000000000000000000000000000000000000000067ffffffffffffffff939093169290920291909117905567016345785d8a0000607055606f80547fffffffffffffffffffffffffffffffffffffffffff00000000000000000000ff166a03ea000000000000070800179055607b80547fffffff000000000000000000ffffffffffffffffffffffffffffffffffffffff167c0100000000000697800000000000000000000000000000000000000000179055612f52614d2a565b7f13e60734641bd97ab6e444f419277d9983e2c3eab9bb631a578ffa07756b635160007f00000000000000000000000000000000000000000000000000000000000000008585604051612fa89493929190615dbe565b60405180910390a1801561301357600080547fffffffffffffffffffffffffffffffffffffffffffffffffffffffffffff00ff169055604051600181527f7f26b83ff96e1f2b6a682f133852f6798a09c465da95921460cefb38474024989060200160405180910390a15b50505050505050565b607b547c0100000000000000000000000000000000000000000000000000000000900460ff1615613079576040517f24eff8c300000000000000000000000000000000000000000000000000000000815260040160405180910390fd5b606f5460ff16156130b6576040517f2f0047fc00000000000000000000000000000000000000000000000000000000815260040160405180910390fd5b8060008190036130f2576040517fcb591a5f00000000000000000000000000000000000000000000000000000000815260040160405180910390fd5b6103e881111561312e576040517fb59f753a00000000000000000000000000000000000000000000000000000000815260040160405180910390fd5b60735467ffffffffffffffff78010000000000000000000000000000000000000000000000008204811691613179918491700100000000000000000000000000000000900416615df6565b11156131b1576040517fc630a00d00000000000000000000000000000000000000000000000000000000815260040160405180910390fd5b60735467ffffffffffffffff680100000000000000008204811660008181526072602052604081205491937001000000000000000000000000000000009004909216915b8481101561345b57600087878381811061321157613211615979565b90506020028101906132239190615e09565b61322c90615e3d565b90508361323881615935565b8251805160209182012081850151604080870151905194995091945060009361329a9386939101928352602083019190915260c01b7fffffffffffffffff00000000000000000000000000000000000000000000000016604082015260480190565b604080517fffffffffffffffffffffffffffffffffffffffffffffffffffffffffffffffe0818403018152918152815160209283012067ffffffffffffffff8916600090815260719093529120549091508114613323576040517fce3d755e00000000000000000000000000000000000000000000000000000000815260040160405180910390fd5b67ffffffffffffffff8616600090815260716020526040812055613348600189615c00565b84036133b75742607b60149054906101000a900467ffffffffffffffff16846040015161337591906158ec565b67ffffffffffffffff1611156133b7576040517fc44a082100000000000000000000000000000000000000000000000000000000815260040160405180910390fd5b6020838101516040805192830188905282018490526060808301919091524260c01b7fffffffffffffffff00000000000000000000000000000000000000000000000016608083015233901b7fffffffffffffffffffffffffffffffffffffffff000000000000000000000000166088820152609c01604051602081830303815290604052805190602001209450505050808061345390615b5c565b9150506131f5565b5061346684846158ec565b6073805467ffffffffffffffff4281167fffffffffffffffffffffffffffffffffffffffffffffffff00000000000000009092168217808455604080516060810182528781526020808201958652680100000000000000009384900485168284019081528589166000818152607290935284832093518455965160019390930180549151871686027fffffffffffffffffffffffffffffffff0000000000000000000000000000000090921693871693909317179091558554938916700100000000000000000000000000000000027fffffffffffffffff0000000000000000ffffffffffffffffffffffffffffffff938602939093167fffffffffffffffff00000000000000000000000000000000ffffffffffffffff90941693909317919091179093559151929550917f648a61dd2438f072f5a1960939abd30f37aea80d2e94c9792ad142d3e0a490a49190a2505050505050565b607a5473ffffffffffffffffffffffffffffffffffffffff16331461360f576040517f4755657900000000000000000000000000000000000000000000000000000000815260040160405180910390fd5b7f000000000000000000000000000000000000000000000000000000000000000073ffffffffffffffffffffffffffffffffffffffff1663dbc169766040518163ffffffff1660e01b8152600401600060405180830381600087803b15801561367757600080fd5b505af115801561368b573d6000803e3d6000fd5b505050506118e0614dca565b60745468010000000000000000900473ffffffffffffffffffffffffffffffffffffffff1633146136f4576040517fbbcbbc0500000000000000000000000000000000000000000000000000000000815260040160405180910390fd5b6137048888888888888888613e23565b607480547fffffffffffffffffffffffffffffffffffffffffffffffff00000000000000001667ffffffffffffffff8781169182179092556000908152607560205260409020849055607954161561377f57607980547fffffffffffffffffffffffffffffffff000000000000000000000000000000001690555b6040517f33d6247d000000000000000000000000000000000000000000000000000000008152600481018590527f000000000000000000000000000000000000000000000000000000000000000073ffffffffffffffffffffffffffffffffffffffff16906333d6247d90602401600060405180830381600087803b15801561380757600080fd5b505af115801561381b573d6000803e3d6000fd5b50506079805477ffffffffffffffffffffffffffffffffffffffffffffffff167a093a800000000000000000000000000000000000000000000000001790555050604051838152339067ffffffffffffffff8716907fcc1b5520188bf1dd3e63f98164b577c4d75c11a619ddea692112f0d1aec4cf729060200160405180910390a35050505050505050565b607b547c0100000000000000000000000000000000000000000000000000000000900460ff1615613904576040517f24eff8c300000000000000000000000000000000000000000000000000000000815260040160405180910390fd5b606f5460ff1615613941576040517f2f0047fc00000000000000000000000000000000000000000000000000000000815260040160405180910390fd5b600061394b6117e3565b905081811115613987576040517f4732fdb500000000000000000000000000000000000000000000000000000000815260040160405180910390fd5b6113888311156139c3576040517fa29a6c7c00000000000000000000000000000000000000000000000000000000815260040160405180910390fd5b613a0573ffffffffffffffffffffffffffffffffffffffff7f000000000000000000000000000000000000000000000000000000000000000016333084614c48565b60007f000000000000000000000000000000000000000000000000000000000000000073ffffffffffffffffffffffffffffffffffffffff16633ed691ef6040518163ffffffff1660e01b8152600401602060405180830381865afa158015613a72573d6000803e3d6000fd5b505050506040513d601f19601f82011682018060405250810190613a969190615abf565b60738054919250780100000000000000000000000000000000000000000000000090910467ffffffffffffffff16906018613ad083615935565b91906101000a81548167ffffffffffffffff021916908367ffffffffffffffff160217905550508484604051613b07929190615eb9565b60408051918290038220602083015281018290527fffffffffffffffff0000000000000000000000000000000000000000000000004260c01b166060820152606801604080518083037fffffffffffffffffffffffffffffffffffffffffffffffffffffffffffffffe001815291815281516020928301206073547801000000000000000000000000000000000000000000000000900467ffffffffffffffff1660009081526071909352912055323303613c3757607354604080518381523360208201526060918101829052600091810191909152780100000000000000000000000000000000000000000000000090910467ffffffffffffffff16907ff94bb37db835f1ab585ee00041849a09b12cd081d77fa15ca070757619cbc9319060800160405180910390a2613c96565b607360189054906101000a900467ffffffffffffffff1667ffffffffffffffff167ff94bb37db835f1ab585ee00041849a09b12cd081d77fa15ca070757619cbc93182338888604051613c8d9493929190615ec9565b60405180910390a25b5050505050565b607a5473ffffffffffffffffffffffffffffffffffffffff163314613cee576040517f4755657900000000000000000000000000000000000000000000000000000000815260040160405180910390fd5b607480547fffffffff0000000000000000000000000000000000000000ffffffffffffffff166801000000000000000073ffffffffffffffffffffffffffffffffffffffff8416908102919091179091556040519081527f61f8fec29495a3078e9271456f05fb0707fd4e41f7661865f80fc437d06681ca90602001610d4d565b613d77614b50565b73ffffffffffffffffffffffffffffffffffffffff8116613e1a576040517f08c379a000000000000000000000000000000000000000000000000000000000815260206004820152602660248201527f4f776e61626c653a206e6577206f776e657220697320746865207a65726f206160448201527f64647265737300000000000000000000000000000000000000000000000000006064820152608401612b92565b6111b981614bd1565b600067ffffffffffffffff891615613ef15760795467ffffffffffffffff908116908a161115613e7f576040517fbb14c20500000000000000000000000000000000000000000000000000000000815260040160405180910390fd5b5067ffffffffffffffff8089166000908152607860205260409020600281015481549092898116680100000000000000009092041614613eeb576040517f2bd2e3e700000000000000000000000000000000000000000000000000000000815260040160405180910390fd5b50613f8d565b5067ffffffffffffffff861660009081526075602052604090205480613f43576040517f4997b98600000000000000000000000000000000000000000000000000000000815260040160405180910390fd5b60745467ffffffffffffffff9081169088161115613f8d576040517f1e56e9e200000000000000000000000000000000000000000000000000000000815260040160405180910390fd5b60795467ffffffffffffffff9081169089161180613fbf57508867ffffffffffffffff168867ffffffffffffffff1611155b80613fe6575060795467ffffffffffffffff68010000000000000000909104811690891611155b1561401d576040517fbfa7079f00000000000000000000000000000000000000000000000000000000815260040160405180910390fd5b67ffffffffffffffff888116600090815260786020526040902054680100000000000000009004811690871614614080576040517f32a2a77f00000000000000000000000000000000000000000000000000000000815260040160405180910390fd5b600061408f8888888589610d58565b905060007f30644e72e131a029b85045b68181585d2833e84879b9709143e1f593f00000016002836040516140c49190615eff565b602060405180830381855afa1580156140e1573d6000803e3d6000fd5b5050506040513d601f19601f820116820180604052508101906141049190615abf565b61410e9190615f11565b6040805160208101825282815290517f8d8f8a5c00000000000000000000000000000000000000000000000000000000815291925073ffffffffffffffffffffffffffffffffffffffff7f00000000000000000000000000000000000000000000000000000000000000001691638d8f8a5c916141919189918991600401615f25565b602060405180830381865afa1580156141ae573d6000803e3d6000fd5b505050506040513d601f19601f820116820180604052508101906141d29190615f6d565b614208576040517f09bde33900000000000000000000000000000000000000000000000000000000815260040160405180910390fd5b67ffffffffffffffff8a1660009081526078602052604090206002015486900361425e576040517fa47276bd00000000000000000000000000000000000000000000000000000000815260040160405180910390fd5b5050505050505050505050565b7f000000000000000000000000000000000000000000000000000000000000000073ffffffffffffffffffffffffffffffffffffffff16632072f6c56040518163ffffffff1660e01b8152600401600060405180830381600087803b1580156142d357600080fd5b505af11580156142e7573d6000803e3d6000fd5b505050506118e0614e59565b60795467ffffffffffffffff68010000000000000000909104811690821611158061432d575060795467ffffffffffffffff908116908216115b15614364576040517fd086b70b00000000000000000000000000000000000000000000000000000000815260040160405180910390fd5b67ffffffffffffffff818116600081815260786020908152604080832080546074805468010000000000000000928390049098167fffffffffffffffffffffffffffffffffffffffffffffffff000000000000000090981688179055600282015487865260759094529382902092909255607980547fffffffffffffffffffffffffffffffff0000000000000000ffffffffffffffff169390940292909217909255600182015490517f33d6247d00000000000000000000000000000000000000000000000000000000815260048101919091529091907f000000000000000000000000000000000000000000000000000000000000000073ffffffffffffffffffffffffffffffffffffffff16906333d6247d90602401600060405180830381600087803b15801561449657600080fd5b505af11580156144aa573d6000803e3d6000fd5b505050508267ffffffffffffffff168167ffffffffffffffff167f328d3c6c0fd6f1be0515e422f2d87e59f25922cbc2233568515a0c4bc3f8510e84600201546040516144f991815260200190565b60405180910390a3505050565b6000806145116129ee565b905067ffffffffffffffff8916156145e15760795467ffffffffffffffff908116908a16111561456d576040517fbb14c20500000000000000000000000000000000000000000000000000000000815260040160405180910390fd5b67ffffffffffffffff808a1660009081526078602052604090206002810154815490945090918a81166801000000000000000090920416146145db576040517f2bd2e3e700000000000000000000000000000000000000000000000000000000815260040160405180910390fd5b50614682565b67ffffffffffffffff8816600090815260756020526040902054915081614634576040517f4997b98600000000000000000000000000000000000000000000000000000000815260040160405180910390fd5b8067ffffffffffffffff168867ffffffffffffffff161115614682576040517f1e56e9e200000000000000000000000000000000000000000000000000000000815260040160405180910390fd5b8067ffffffffffffffff168767ffffffffffffffff16116146cf576040517fb9b18f5700000000000000000000000000000000000000000000000000000000815260040160405180910390fd5b60006146de898989868a610d58565b905060007f30644e72e131a029b85045b68181585d2833e84879b9709143e1f593f00000016002836040516147139190615eff565b602060405180830381855afa158015614730573d6000803e3d6000fd5b5050506040513d601f19601f820116820180604052508101906147539190615abf565b61475d9190615f11565b6040805160208101825282815290517f8d8f8a5c00000000000000000000000000000000000000000000000000000000815291925073ffffffffffffffffffffffffffffffffffffffff7f00000000000000000000000000000000000000000000000000000000000000001691638d8f8a5c916147e0918a918a91600401615f25565b602060405180830381865afa1580156147fd573d6000803e3d6000fd5b505050506040513d601f19601f820116820180604052508101906148219190615f6d565b614857576040517f09bde33900000000000000000000000000000000000000000000000000000000815260040160405180910390fd5b61425e33614865858c615914565b67ffffffffffffffff16614877612300565b614881919061595c565b73ffffffffffffffffffffffffffffffffffffffff7f0000000000000000000000000000000000000000000000000000000000000000169190614eec565b60006148c96129ee565b9050816000806148d98484615914565b606f5467ffffffffffffffff91821692506000916148fd9161010090041642615c00565b90505b8467ffffffffffffffff168467ffffffffffffffff16146149885767ffffffffffffffff8085166000908152607260205260409020600181015490911682101561496657600181015468010000000000000000900467ffffffffffffffff169450614982565b6149708686615914565b67ffffffffffffffff16935050614988565b50614900565b60006149948484615c00565b9050838110156149eb57808403600c81116149af57806149b2565b600c5b9050806103e80a81606f60099054906101000a900461ffff1661ffff160a60705402816149e1576149e1615c13565b0460705550614a5b565b838103600c81116149fc57806149ff565b600c5b90506000816103e80a82606f60099054906101000a900461ffff1661ffff160a670de0b6b3a76400000281614a3657614a36615c13565b04905080607054670de0b6b3a76400000281614a5457614a54615c13565b0460705550505b683635c9adc5dea000006070541115614a8057683635c9adc5dea00000607055613013565b633b9aca00607054101561301357633b9aca0060705550505050505050565b60795467ffffffffffffffff6801000000000000000082048116911611156118e057607954600090614ae89068010000000000000000900467ffffffffffffffff1660016158ec565b9050614af381610f2f565b156111b957607954600090600290614b1690849067ffffffffffffffff16615914565b614b209190615f8f565b614b2a90836158ec565b9050614b3581610f2f565b15614b4757614b43816142f3565b5050565b614b43826142f3565b60335473ffffffffffffffffffffffffffffffffffffffff1633146118e0576040517f08c379a000000000000000000000000000000000000000000000000000000000815260206004820181905260248201527f4f776e61626c653a2063616c6c6572206973206e6f7420746865206f776e65726044820152606401612b92565b6033805473ffffffffffffffffffffffffffffffffffffffff8381167fffffffffffffffffffffffff0000000000000000000000000000000000000000831681179093556040519116919082907f8be0079c531659141344cd1fd0a4f28419497f9722a3daafe3b4186f6b6457e090600090a35050565b60405173ffffffffffffffffffffffffffffffffffffffff80851660248301528316604482015260648101829052614d249085907f23b872dd00000000000000000000000000000000000000000000000000000000906084015b604080517fffffffffffffffffffffffffffffffffffffffffffffffffffffffffffffffe08184030181529190526020810180517bffffffffffffffffffffffffffffffffffffffffffffffffffffffff167fffffffff0000000000000000000000000000000000000000000000000000000090931692909217909152614f47565b50505050565b600054610100900460ff16614dc1576040517f08c379a000000000000000000000000000000000000000000000000000000000815260206004820152602b60248201527f496e697469616c697a61626c653a20636f6e7472616374206973206e6f74206960448201527f6e697469616c697a696e670000000000000000000000000000000000000000006064820152608401612b92565b6118e033614bd1565b606f5460ff16614e06576040517f5386698100000000000000000000000000000000000000000000000000000000815260040160405180910390fd5b606f80547fffffffffffffffffffffffffffffffffffffffffffffffffffffffffffffff001690556040517f1e5e34eea33501aecf2ebec9fe0e884a40804275ea7fe10b2ba084c8374308b390600090a1565b606f5460ff1615614e96576040517f2f0047fc00000000000000000000000000000000000000000000000000000000815260040160405180910390fd5b606f80547fffffffffffffffffffffffffffffffffffffffffffffffffffffffffffffff001660011790556040517f2261efe5aef6fedc1fd1550b25facc9181745623049c7901287030b9ad1a549790600090a1565b60405173ffffffffffffffffffffffffffffffffffffffff8316602482015260448101829052614f429084907fa9059cbb0000000000000000000000000000000000000000000000000000000090606401614ca2565b505050565b6000614fa9826040518060400160405280602081526020017f5361666545524332303a206c6f772d6c6576656c2063616c6c206661696c65648152508573ffffffffffffffffffffffffffffffffffffffff166150539092919063ffffffff16565b805190915015614f425780806020019051810190614fc79190615f6d565b614f42576040517f08c379a000000000000000000000000000000000000000000000000000000000815260206004820152602a60248201527f5361666545524332303a204552433230206f7065726174696f6e20646964206e60448201527f6f742073756363656564000000000000000000000000000000000000000000006064820152608401612b92565b6060615062848460008561506a565b949350505050565b6060824710156150fc576040517f08c379a000000000000000000000000000000000000000000000000000000000815260206004820152602660248201527f416464726573733a20696e73756666696369656e742062616c616e636520666f60448201527f722063616c6c00000000000000000000000000000000000000000000000000006064820152608401612b92565b6000808673ffffffffffffffffffffffffffffffffffffffff1685876040516151259190615eff565b60006040518083038185875af1925050503d8060008114615162576040519150601f19603f3d011682016040523d82523d6000602084013e615167565b606091505b509150915061517887838387615183565b979650505050505050565b606083156152195782516000036152125773ffffffffffffffffffffffffffffffffffffffff85163b615212576040517f08c379a000000000000000000000000000000000000000000000000000000000815260206004820152601d60248201527f416464726573733a2063616c6c20746f206e6f6e2d636f6e74726163740000006044820152606401612b92565b5081615062565b615062838381511561522e5781518083602001fd5b806040517f08c379a0000000000000000000000000000000000000000000000000000000008152600401612b9291906153ca565b803567ffffffffffffffff811681146129e957600080fd5b60008083601f84011261528c57600080fd5b50813567ffffffffffffffff8111156152a457600080fd5b6020830191508360208285010111156152bc57600080fd5b9250929050565b60008060008060008060008060e0898b0312156152df57600080fd5b6152e889615262565b97506152f660208a01615262565b965061530460408a01615262565b955061531260608a01615262565b94506080890135935060a0890135925060c089013567ffffffffffffffff81111561533c57600080fd5b6153488b828c0161527a565b999c989b5096995094979396929594505050565b60005b8381101561537757818101518382015260200161535f565b50506000910152565b6000815180845261539881602086016020860161535c565b601f017fffffffffffffffffffffffffffffffffffffffffffffffffffffffffffffffe0169290920160200192915050565b6020815260006153dd6020830184615380565b9392505050565b6000602082840312156153f657600080fd5b813561ffff811681146153dd57600080fd5b600080600080600060a0868803121561542057600080fd5b61542986615262565b945061543760208701615262565b94979496505050506040830135926060810135926080909101359150565b60006020828403121561546757600080fd5b6153dd82615262565b600080600080600080600060c0888a03121561548b57600080fd5b61549488615262565b96506154a260208901615262565b95506154b060408901615262565b9450606088013593506080880135925060a088013567ffffffffffffffff8111156154da57600080fd5b6154e68a828b0161527a565b989b979a50959850939692959293505050565b803573ffffffffffffffffffffffffffffffffffffffff811681146129e957600080fd5b60006020828403121561552f57600080fd5b6153dd826154f9565b60008083601f84011261554a57600080fd5b50813567ffffffffffffffff81111561556257600080fd5b6020830191508360208260051b85010111156152bc57600080fd5b60008060008060006060868803121561559557600080fd5b853567ffffffffffffffff808211156155ad57600080fd5b6155b989838a01615538565b90975095508591506155cd602089016154f9565b945060408801359150808211156155e357600080fd5b506155f08882890161527a565b969995985093965092949392505050565b60006020828403121561561357600080fd5b5035919050565b7f4e487b7100000000000000000000000000000000000000000000000000000000600052604160045260246000fd5b600082601f83011261565a57600080fd5b813567ffffffffffffffff808211156156755761567561561a565b604051601f83017fffffffffffffffffffffffffffffffffffffffffffffffffffffffffffffffe0908116603f011681019082821181831017156156bb576156bb61561a565b816040528381528660208588010111156156d457600080fd5b836020870160208301376000602085830101528094505050505092915050565b60006020828403121561570657600080fd5b813567ffffffffffffffff81111561571d57600080fd5b61506284828501615649565b60008060008060008086880361012081121561574457600080fd5b60a081121561575257600080fd5b5086955060a0870135945060c087013567ffffffffffffffff8082111561577857600080fd5b6157848a838b01615649565b955060e089013591508082111561579a57600080fd5b6157a68a838b01615649565b94506101008901359150808211156157bd57600080fd5b506157ca89828a0161527a565b979a9699509497509295939492505050565b600080602083850312156157ef57600080fd5b823567ffffffffffffffff81111561580657600080fd5b61581285828601615538565b90969095509350505050565b60008060006040848603121561583357600080fd5b833567ffffffffffffffff81111561584a57600080fd5b6158568682870161527a565b909790965060209590950135949350505050565b600181811c9082168061587e57607f821691505b6020821081036158b7577f4e487b7100000000000000000000000000000000000000000000000000000000600052602260045260246000fd5b50919050565b7f4e487b7100000000000000000000000000000000000000000000000000000000600052601160045260246000fd5b67ffffffffffffffff81811683821601908082111561590d5761590d6158bd565b5092915050565b67ffffffffffffffff82811682821603908082111561590d5761590d6158bd565b600067ffffffffffffffff808316818103615952576159526158bd565b6001019392505050565b8082028115828204841417615973576159736158bd565b92915050565b7f4e487b7100000000000000000000000000000000000000000000000000000000600052603260045260246000fd5b600082357fffffffffffffffffffffffffffffffffffffffffffffffffffffffffffffff818336030181126159dc57600080fd5b9190910192915050565b6000608082360312156159f857600080fd5b6040516080810167ffffffffffffffff8282108183111715615a1c57615a1c61561a565b816040528435915080821115615a3157600080fd5b50615a3e36828601615649565b82525060208301356020820152615a5760408401615262565b6040820152615a6860608401615262565b606082015292915050565b60008451615a8581846020890161535c565b919091019283525060c01b7fffffffffffffffff000000000000000000000000000000000000000000000000166020820152602801919050565b600060208284031215615ad157600080fd5b5051919050565b85815260008551615af0816020850160208a0161535c565b602092019182019490945260c09290921b7fffffffffffffffff00000000000000000000000000000000000000000000000016604083015260601b7fffffffffffffffffffffffffffffffffffffffff000000000000000000000000166048820152605c019392505050565b60007fffffffffffffffffffffffffffffffffffffffffffffffffffffffffffffffff8203615b8d57615b8d6158bd565b5060010190565b8183528181602085013750600060208284010152600060207fffffffffffffffffffffffffffffffffffffffffffffffffffffffffffffffe0601f840116840101905092915050565b838152604060208201526000615bf7604083018486615b94565b95945050505050565b81810381811115615973576159736158bd565b7f4e487b7100000000000000000000000000000000000000000000000000000000600052601260045260246000fd5b600082615c5157615c51615c13565b500490565b601f821115614f4257600081815260208120601f850160051c81016020861015615c7d5750805b601f850160051c820191505b81811015615c9c57828155600101615c89565b505050505050565b815167ffffffffffffffff811115615cbe57615cbe61561a565b615cd281615ccc845461586a565b84615c56565b602080601f831160018114615d255760008415615cef5750858301515b7fffffffffffffffffffffffffffffffffffffffffffffffffffffffffffffffff600386901b1c1916600185901b178555615c9c565b6000858152602081207fffffffffffffffffffffffffffffffffffffffffffffffffffffffffffffffe08616915b82811015615d7257888601518255948401946001909101908401615d53565b5085821015615dae57878501517fffffffffffffffffffffffffffffffffffffffffffffffffffffffffffffffff600388901b60f8161c191681555b5050505050600190811b01905550565b600067ffffffffffffffff808716835280861660208401525060606040830152615dec606083018486615b94565b9695505050505050565b80820180821115615973576159736158bd565b600082357fffffffffffffffffffffffffffffffffffffffffffffffffffffffffffffffa18336030181126159dc57600080fd5b600060608236031215615e4f57600080fd5b6040516060810167ffffffffffffffff8282108183111715615e7357615e7361561a565b816040528435915080821115615e8857600080fd5b50615e9536828601615649565b82525060208301356020820152615eae60408401615262565b604082015292915050565b8183823760009101908152919050565b84815273ffffffffffffffffffffffffffffffffffffffff84166020820152606060408201526000615dec606083018486615b94565b600082516159dc81846020870161535c565b600082615f2057615f20615c13565b500690565b604081526000615f39604083018587615b94565b905060208083018460005b6001811015615f6157815183529183019190830190600101615f44565b50505050949350505050565b600060208284031215615f7f57600080fd5b815180151581146153dd57600080fd5b600067ffffffffffffffff80841680615faa57615faa615c13565b9216919091049291505056fea2646970667358221220ae274269351a9439026a9348b1645442688c6e9a0713997f67aae841bf61577f64736f6c63430008110033",
  "linkReferences": {},
  "deployedLinkReferences": {}
}