{
  "_format": "hh-sol-artifact-1",
  "contractName": "Supernets2Mock",
  "sourceName": "contracts/mocks/Supernets2Mock.sol",
  "abi": [
    {
      "inputs": [
        {
          "internalType": "contract ISupernets2GlobalExitRoot",
          "name": "_globalExitRootManager",
          "type": "address"
        },
        {
          "internalType": "contract IERC20Upgradeable",
          "name": "_matic",
          "type": "address"
        },
        {
          "internalType": "contract IVerifierRollup",
          "name": "_rollupVerifier",
          "type": "address"
        },
        {
          "internalType": "contract ISupernets2Bridge",
          "name": "_bridgeAddress",
          "type": "address"
        },
        {
          "internalType": "contract ISupernets2DataCommittee",
          "name": "_dataComiteeAddress",
          "type": "address"
        },
        {
          "internalType": "uint64",
          "name": "_chainID",
          "type": "uint64"
        },
        {
          "internalType": "uint64",
          "name": "_forkID",
          "type": "uint64"
        }
      ],
      "stateMutability": "nonpayable",
      "type": "constructor"
    },
    {
      "inputs": [],
      "name": "BatchAlreadyVerified",
      "type": "error"
    },
    {
      "inputs": [],
      "name": "BatchNotSequencedOrNotSequenceEnd",
      "type": "error"
    },
    {
      "inputs": [],
      "name": "ExceedMaxVerifyBatches",
      "type": "error"
    },
    {
      "inputs": [],
      "name": "FinalNumBatchBelowLastVerifiedBatch",
      "type": "error"
    },
    {
      "inputs": [],
      "name": "FinalNumBatchDoesNotMatchPendingState",
      "type": "error"
    },
    {
      "inputs": [],
      "name": "FinalPendingStateNumInvalid",
      "type": "error"
    },
    {
      "inputs": [],
      "name": "ForceBatchNotAllowed",
      "type": "error"
    },
    {
      "inputs": [],
      "name": "ForceBatchTimeoutNotExpired",
      "type": "error"
    },
    {
      "inputs": [],
      "name": "ForceBatchesAlreadyActive",
      "type": "error"
    },
    {
      "inputs": [],
      "name": "ForceBatchesOverflow",
      "type": "error"
    },
    {
      "inputs": [],
      "name": "ForcedDataDoesNotMatch",
      "type": "error"
    },
    {
      "inputs": [],
      "name": "GlobalExitRootNotExist",
      "type": "error"
    },
    {
      "inputs": [],
      "name": "HaltTimeoutNotExpired",
      "type": "error"
    },
    {
      "inputs": [],
      "name": "InitNumBatchAboveLastVerifiedBatch",
      "type": "error"
    },
    {
      "inputs": [],
      "name": "InitNumBatchDoesNotMatchPendingState",
      "type": "error"
    },
    {
      "inputs": [],
      "name": "InvalidProof",
      "type": "error"
    },
    {
      "inputs": [],
      "name": "InvalidRangeBatchTimeTarget",
      "type": "error"
    },
    {
      "inputs": [],
      "name": "InvalidRangeForceBatchTimeout",
      "type": "error"
    },
    {
      "inputs": [],
      "name": "InvalidRangeMultiplierBatchFee",
      "type": "error"
    },
    {
      "inputs": [],
      "name": "NewAccInputHashDoesNotExist",
      "type": "error"
    },
    {
      "inputs": [],
      "name": "NewPendingStateTimeoutMustBeLower",
      "type": "error"
    },
    {
      "inputs": [],
      "name": "NewStateRootNotInsidePrime",
      "type": "error"
    },
    {
      "inputs": [],
      "name": "NewTrustedAggregatorTimeoutMustBeLower",
      "type": "error"
    },
    {
      "inputs": [],
      "name": "NotEnoughMaticAmount",
      "type": "error"
    },
    {
      "inputs": [],
      "name": "OldAccInputHashDoesNotExist",
      "type": "error"
    },
    {
      "inputs": [],
      "name": "OldStateRootDoesNotExist",
      "type": "error"
    },
    {
      "inputs": [],
      "name": "OnlyAdmin",
      "type": "error"
    },
    {
      "inputs": [],
      "name": "OnlyEmergencyState",
      "type": "error"
    },
    {
      "inputs": [],
      "name": "OnlyNotEmergencyState",
      "type": "error"
    },
    {
      "inputs": [],
      "name": "OnlyPendingAdmin",
      "type": "error"
    },
    {
      "inputs": [],
      "name": "OnlyTrustedAggregator",
      "type": "error"
    },
    {
      "inputs": [],
      "name": "OnlyTrustedSequencer",
      "type": "error"
    },
    {
      "inputs": [],
      "name": "PendingStateDoesNotExist",
      "type": "error"
    },
    {
      "inputs": [],
      "name": "PendingStateInvalid",
      "type": "error"
    },
    {
      "inputs": [],
      "name": "PendingStateNotConsolidable",
      "type": "error"
    },
    {
      "inputs": [],
      "name": "PendingStateTimeoutExceedHaltAggregationTimeout",
      "type": "error"
    },
    {
      "inputs": [],
      "name": "SequenceZeroBatches",
      "type": "error"
    },
    {
      "inputs": [],
      "name": "SequencedTimestampBelowForcedTimestamp",
      "type": "error"
    },
    {
      "inputs": [],
      "name": "SequencedTimestampInvalid",
      "type": "error"
    },
    {
      "inputs": [],
      "name": "StoredRootMustBeDifferentThanNewRoot",
      "type": "error"
    },
    {
      "inputs": [],
      "name": "TransactionsLengthAboveMax",
      "type": "error"
    },
    {
      "inputs": [],
      "name": "TrustedAggregatorTimeoutExceedHaltAggregationTimeout",
      "type": "error"
    },
    {
      "inputs": [],
      "name": "TrustedAggregatorTimeoutNotExpired",
      "type": "error"
    },
    {
      "anonymous": false,
      "inputs": [
        {
          "indexed": false,
          "internalType": "address",
          "name": "newAdmin",
          "type": "address"
        }
      ],
      "name": "AcceptAdminRole",
      "type": "event"
    },
    {
      "anonymous": false,
      "inputs": [],
      "name": "ActivateForceBatches",
      "type": "event"
    },
    {
      "anonymous": false,
      "inputs": [
        {
          "indexed": true,
          "internalType": "uint64",
          "name": "numBatch",
          "type": "uint64"
        },
        {
          "indexed": false,
          "internalType": "bytes32",
          "name": "stateRoot",
          "type": "bytes32"
        },
        {
          "indexed": true,
          "internalType": "uint64",
          "name": "pendingStateNum",
          "type": "uint64"
        }
      ],
      "name": "ConsolidatePendingState",
      "type": "event"
    },
    {
      "anonymous": false,
      "inputs": [],
      "name": "EmergencyStateActivated",
      "type": "event"
    },
    {
      "anonymous": false,
      "inputs": [],
      "name": "EmergencyStateDeactivated",
      "type": "event"
    },
    {
      "anonymous": false,
      "inputs": [
        {
          "indexed": true,
          "internalType": "uint64",
          "name": "forceBatchNum",
          "type": "uint64"
        },
        {
          "indexed": false,
          "internalType": "bytes32",
          "name": "lastGlobalExitRoot",
          "type": "bytes32"
        },
        {
          "indexed": false,
          "internalType": "address",
          "name": "sequencer",
          "type": "address"
        },
        {
          "indexed": false,
          "internalType": "bytes",
          "name": "transactions",
          "type": "bytes"
        }
      ],
      "name": "ForceBatch",
      "type": "event"
    },
    {
      "anonymous": false,
      "inputs": [
        {
          "indexed": false,
          "internalType": "uint8",
          "name": "version",
          "type": "uint8"
        }
      ],
      "name": "Initialized",
      "type": "event"
    },
    {
      "anonymous": false,
      "inputs": [
        {
          "indexed": true,
          "internalType": "uint64",
          "name": "numBatch",
          "type": "uint64"
        },
        {
          "indexed": false,
          "internalType": "bytes32",
          "name": "stateRoot",
          "type": "bytes32"
        },
        {
          "indexed": true,
          "internalType": "address",
          "name": "aggregator",
          "type": "address"
        }
      ],
      "name": "OverridePendingState",
      "type": "event"
    },
    {
      "anonymous": false,
      "inputs": [
        {
          "indexed": true,
          "internalType": "address",
          "name": "previousOwner",
          "type": "address"
        },
        {
          "indexed": true,
          "internalType": "address",
          "name": "newOwner",
          "type": "address"
        }
      ],
      "name": "OwnershipTransferred",
      "type": "event"
    },
    {
      "anonymous": false,
      "inputs": [
        {
          "indexed": false,
          "internalType": "bytes32",
          "name": "storedStateRoot",
          "type": "bytes32"
        },
        {
          "indexed": false,
          "internalType": "bytes32",
          "name": "provedStateRoot",
          "type": "bytes32"
        }
      ],
      "name": "ProveNonDeterministicPendingState",
      "type": "event"
    },
    {
      "anonymous": false,
      "inputs": [
        {
          "indexed": true,
          "internalType": "uint64",
          "name": "numBatch",
          "type": "uint64"
        }
      ],
      "name": "SequenceBatches",
      "type": "event"
    },
    {
      "anonymous": false,
      "inputs": [
        {
          "indexed": true,
          "internalType": "uint64",
          "name": "numBatch",
          "type": "uint64"
        }
      ],
      "name": "SequenceForceBatches",
      "type": "event"
    },
    {
      "anonymous": false,
      "inputs": [
        {
          "indexed": false,
          "internalType": "uint64",
          "name": "newforceBatchTimeout",
          "type": "uint64"
        }
      ],
      "name": "SetForceBatchTimeout",
      "type": "event"
    },
    {
      "anonymous": false,
      "inputs": [
        {
          "indexed": false,
          "internalType": "uint16",
          "name": "newMultiplierBatchFee",
          "type": "uint16"
        }
      ],
      "name": "SetMultiplierBatchFee",
      "type": "event"
    },
    {
      "anonymous": false,
      "inputs": [
        {
          "indexed": false,
          "internalType": "uint64",
          "name": "newPendingStateTimeout",
          "type": "uint64"
        }
      ],
      "name": "SetPendingStateTimeout",
      "type": "event"
    },
    {
      "anonymous": false,
      "inputs": [
        {
          "indexed": false,
          "internalType": "address",
          "name": "newTrustedAggregator",
          "type": "address"
        }
      ],
      "name": "SetTrustedAggregator",
      "type": "event"
    },
    {
      "anonymous": false,
      "inputs": [
        {
          "indexed": false,
          "internalType": "uint64",
          "name": "newTrustedAggregatorTimeout",
          "type": "uint64"
        }
      ],
      "name": "SetTrustedAggregatorTimeout",
      "type": "event"
    },
    {
      "anonymous": false,
      "inputs": [
        {
          "indexed": false,
          "internalType": "address",
          "name": "newTrustedSequencer",
          "type": "address"
        }
      ],
      "name": "SetTrustedSequencer",
      "type": "event"
    },
    {
      "anonymous": false,
      "inputs": [
        {
          "indexed": false,
          "internalType": "string",
          "name": "newTrustedSequencerURL",
          "type": "string"
        }
      ],
      "name": "SetTrustedSequencerURL",
      "type": "event"
    },
    {
      "anonymous": false,
      "inputs": [
        {
          "indexed": false,
          "internalType": "uint64",
          "name": "newVerifyBatchTimeTarget",
          "type": "uint64"
        }
      ],
      "name": "SetVerifyBatchTimeTarget",
      "type": "event"
    },
    {
      "anonymous": false,
      "inputs": [
        {
          "indexed": false,
          "internalType": "address",
          "name": "newPendingAdmin",
          "type": "address"
        }
      ],
      "name": "TransferAdminRole",
      "type": "event"
    },
    {
      "anonymous": false,
      "inputs": [
        {
          "indexed": false,
          "internalType": "uint64",
          "name": "numBatch",
          "type": "uint64"
        },
        {
          "indexed": false,
          "internalType": "uint64",
          "name": "forkID",
          "type": "uint64"
        },
        {
          "indexed": false,
          "internalType": "string",
          "name": "version",
          "type": "string"
        }
      ],
      "name": "UpdateSupernets2Version",
      "type": "event"
    },
    {
      "anonymous": false,
      "inputs": [
        {
          "indexed": true,
          "internalType": "uint64",
          "name": "numBatch",
          "type": "uint64"
        },
        {
          "indexed": false,
          "internalType": "bytes32",
          "name": "stateRoot",
          "type": "bytes32"
        },
        {
          "indexed": true,
          "internalType": "address",
          "name": "aggregator",
          "type": "address"
        }
      ],
      "name": "VerifyBatches",
      "type": "event"
    },
    {
      "anonymous": false,
      "inputs": [
        {
          "indexed": true,
          "internalType": "uint64",
          "name": "numBatch",
          "type": "uint64"
        },
        {
          "indexed": false,
          "internalType": "bytes32",
          "name": "stateRoot",
          "type": "bytes32"
        },
        {
          "indexed": true,
          "internalType": "address",
          "name": "aggregator",
          "type": "address"
        }
      ],
      "name": "VerifyBatchesTrustedAggregator",
      "type": "event"
    },
    {
      "inputs": [],
      "name": "acceptAdminRole",
      "outputs": [],
      "stateMutability": "nonpayable",
      "type": "function"
    },
    {
      "inputs": [
        {
          "internalType": "uint64",
          "name": "sequencedBatchNum",
          "type": "uint64"
        }
      ],
      "name": "activateEmergencyState",
      "outputs": [],
      "stateMutability": "nonpayable",
      "type": "function"
    },
    {
      "inputs": [],
      "name": "activateForceBatches",
      "outputs": [],
      "stateMutability": "nonpayable",
      "type": "function"
    },
    {
      "inputs": [],
      "name": "admin",
      "outputs": [
        {
          "internalType": "address",
          "name": "",
          "type": "address"
        }
      ],
      "stateMutability": "view",
      "type": "function"
    },
    {
      "inputs": [],
      "name": "batchFee",
      "outputs": [
        {
          "internalType": "uint256",
          "name": "",
          "type": "uint256"
        }
      ],
      "stateMutability": "view",
      "type": "function"
    },
    {
      "inputs": [
        {
          "internalType": "uint64",
          "name": "",
          "type": "uint64"
        }
      ],
      "name": "batchNumToStateRoot",
      "outputs": [
        {
          "internalType": "bytes32",
          "name": "",
          "type": "bytes32"
        }
      ],
      "stateMutability": "view",
      "type": "function"
    },
    {
      "inputs": [],
      "name": "bridgeAddress",
      "outputs": [
        {
          "internalType": "contract ISupernets2Bridge",
          "name": "",
          "type": "address"
        }
      ],
      "stateMutability": "view",
      "type": "function"
    },
    {
      "inputs": [
        {
          "internalType": "bytes32",
          "name": "currentAccInputHash",
          "type": "bytes32"
        },
        {
          "internalType": "bytes",
          "name": "transactions",
          "type": "bytes"
        },
        {
          "internalType": "bytes32",
          "name": "globalExitRoot",
          "type": "bytes32"
        },
        {
          "internalType": "uint64",
          "name": "timestamp",
          "type": "uint64"
        },
        {
          "internalType": "address",
          "name": "sequencerAddress",
          "type": "address"
        }
      ],
      "name": "calculateAccInputHash",
      "outputs": [
        {
          "internalType": "bytes32",
          "name": "",
          "type": "bytes32"
        }
      ],
      "stateMutability": "pure",
      "type": "function"
    },
    {
      "inputs": [],
      "name": "calculateRewardPerBatch",
      "outputs": [
        {
          "internalType": "uint256",
          "name": "",
          "type": "uint256"
        }
      ],
      "stateMutability": "view",
      "type": "function"
    },
    {
      "inputs": [],
      "name": "chainID",
      "outputs": [
        {
          "internalType": "uint64",
          "name": "",
          "type": "uint64"
        }
      ],
      "stateMutability": "view",
      "type": "function"
    },
    {
      "inputs": [
        {
          "internalType": "uint256",
          "name": "newStateRoot",
          "type": "uint256"
        }
      ],
      "name": "checkStateRootInsidePrime",
      "outputs": [
        {
          "internalType": "bool",
          "name": "",
          "type": "bool"
        }
      ],
      "stateMutability": "pure",
      "type": "function"
    },
    {
      "inputs": [
        {
          "internalType": "uint64",
          "name": "pendingStateNum",
          "type": "uint64"
        }
      ],
      "name": "consolidatePendingState",
      "outputs": [],
      "stateMutability": "nonpayable",
      "type": "function"
    },
    {
      "inputs": [],
      "name": "dataCommitteeAddress",
      "outputs": [
        {
          "internalType": "contract ISupernets2DataCommittee",
          "name": "",
          "type": "address"
        }
      ],
      "stateMutability": "view",
      "type": "function"
    },
    {
      "inputs": [],
      "name": "deactivateEmergencyState",
      "outputs": [],
      "stateMutability": "nonpayable",
      "type": "function"
    },
    {
      "inputs": [
        {
          "internalType": "bytes",
          "name": "transactions",
          "type": "bytes"
        },
        {
          "internalType": "uint256",
          "name": "maticAmount",
          "type": "uint256"
        }
      ],
      "name": "forceBatch",
      "outputs": [],
      "stateMutability": "nonpayable",
      "type": "function"
    },
    {
      "inputs": [],
      "name": "forceBatchTimeout",
      "outputs": [
        {
          "internalType": "uint64",
          "name": "",
          "type": "uint64"
        }
      ],
      "stateMutability": "view",
      "type": "function"
    },
    {
      "inputs": [
        {
          "internalType": "uint64",
          "name": "",
          "type": "uint64"
        }
      ],
      "name": "forcedBatches",
      "outputs": [
        {
          "internalType": "bytes32",
          "name": "",
          "type": "bytes32"
        }
      ],
      "stateMutability": "view",
      "type": "function"
    },
    {
      "inputs": [],
      "name": "forkID",
      "outputs": [
        {
          "internalType": "uint64",
          "name": "",
          "type": "uint64"
        }
      ],
      "stateMutability": "view",
      "type": "function"
    },
    {
      "inputs": [],
      "name": "getForcedBatchFee",
      "outputs": [
        {
          "internalType": "uint256",
          "name": "",
          "type": "uint256"
        }
      ],
      "stateMutability": "view",
      "type": "function"
    },
    {
      "inputs": [
        {
          "internalType": "uint64",
          "name": "initNumBatch",
          "type": "uint64"
        },
        {
          "internalType": "uint64",
          "name": "finalNewBatch",
          "type": "uint64"
        },
        {
          "internalType": "bytes32",
          "name": "newLocalExitRoot",
          "type": "bytes32"
        },
        {
          "internalType": "bytes32",
          "name": "oldStateRoot",
          "type": "bytes32"
        },
        {
          "internalType": "bytes32",
          "name": "newStateRoot",
          "type": "bytes32"
        }
      ],
      "name": "getInputSnarkBytes",
      "outputs": [
        {
          "internalType": "bytes",
          "name": "",
          "type": "bytes"
        }
      ],
      "stateMutability": "view",
      "type": "function"
    },
    {
      "inputs": [],
      "name": "getLastVerifiedBatch",
      "outputs": [
        {
          "internalType": "uint64",
          "name": "",
          "type": "uint64"
        }
      ],
      "stateMutability": "view",
      "type": "function"
    },
    {
      "inputs": [
        {
          "internalType": "uint64",
          "name": "pendingStateNum",
          "type": "uint64"
        },
        {
          "internalType": "uint64",
          "name": "initNumBatch",
          "type": "uint64"
        },
        {
          "internalType": "uint64",
          "name": "finalNewBatch",
          "type": "uint64"
        },
        {
          "internalType": "bytes32",
          "name": "newLocalExitRoot",
          "type": "bytes32"
        },
        {
          "internalType": "bytes32",
          "name": "newStateRoot",
          "type": "bytes32"
        }
      ],
      "name": "getNextSnarkInput",
      "outputs": [
        {
          "internalType": "uint256",
          "name": "",
          "type": "uint256"
        }
      ],
      "stateMutability": "view",
      "type": "function"
    },
    {
      "inputs": [],
      "name": "globalExitRootManager",
      "outputs": [
        {
          "internalType": "contract ISupernets2GlobalExitRoot",
          "name": "",
          "type": "address"
        }
      ],
      "stateMutability": "view",
      "type": "function"
    },
    {
      "inputs": [
        {
          "components": [
            {
              "internalType": "address",
              "name": "admin",
              "type": "address"
            },
            {
              "internalType": "address",
              "name": "trustedSequencer",
              "type": "address"
            },
            {
              "internalType": "uint64",
              "name": "pendingStateTimeout",
              "type": "uint64"
            },
            {
              "internalType": "address",
              "name": "trustedAggregator",
              "type": "address"
            },
            {
              "internalType": "uint64",
              "name": "trustedAggregatorTimeout",
              "type": "uint64"
            }
          ],
          "internalType": "struct Supernets2.InitializePackedParameters",
          "name": "initializePackedParameters",
          "type": "tuple"
        },
        {
          "internalType": "bytes32",
          "name": "genesisRoot",
          "type": "bytes32"
        },
        {
          "internalType": "string",
          "name": "_trustedSequencerURL",
          "type": "string"
        },
        {
          "internalType": "string",
          "name": "_networkName",
          "type": "string"
        },
        {
          "internalType": "string",
          "name": "_version",
          "type": "string"
        }
      ],
      "name": "initialize",
      "outputs": [],
      "stateMutability": "nonpayable",
      "type": "function"
    },
    {
      "inputs": [],
      "name": "isEmergencyState",
      "outputs": [
        {
          "internalType": "bool",
          "name": "",
          "type": "bool"
        }
      ],
      "stateMutability": "view",
      "type": "function"
    },
    {
      "inputs": [],
      "name": "isForcedBatchDisallowed",
      "outputs": [
        {
          "internalType": "bool",
          "name": "",
          "type": "bool"
        }
      ],
      "stateMutability": "view",
      "type": "function"
    },
    {
      "inputs": [
        {
          "internalType": "uint64",
          "name": "pendingStateNum",
          "type": "uint64"
        }
      ],
      "name": "isPendingStateConsolidable",
      "outputs": [
        {
          "internalType": "bool",
          "name": "",
          "type": "bool"
        }
      ],
      "stateMutability": "view",
      "type": "function"
    },
    {
      "inputs": [],
      "name": "lastBatchSequenced",
      "outputs": [
        {
          "internalType": "uint64",
          "name": "",
          "type": "uint64"
        }
      ],
      "stateMutability": "view",
      "type": "function"
    },
    {
      "inputs": [],
      "name": "lastForceBatch",
      "outputs": [
        {
          "internalType": "uint64",
          "name": "",
          "type": "uint64"
        }
      ],
      "stateMutability": "view",
      "type": "function"
    },
    {
      "inputs": [],
      "name": "lastForceBatchSequenced",
      "outputs": [
        {
          "internalType": "uint64",
          "name": "",
          "type": "uint64"
        }
      ],
      "stateMutability": "view",
      "type": "function"
    },
    {
      "inputs": [],
      "name": "lastPendingState",
      "outputs": [
        {
          "internalType": "uint64",
          "name": "",
          "type": "uint64"
        }
      ],
      "stateMutability": "view",
      "type": "function"
    },
    {
      "inputs": [],
      "name": "lastPendingStateConsolidated",
      "outputs": [
        {
          "internalType": "uint64",
          "name": "",
          "type": "uint64"
        }
      ],
      "stateMutability": "view",
      "type": "function"
    },
    {
      "inputs": [],
      "name": "lastTimestamp",
      "outputs": [
        {
          "internalType": "uint64",
          "name": "",
          "type": "uint64"
        }
      ],
      "stateMutability": "view",
      "type": "function"
    },
    {
      "inputs": [],
      "name": "lastVerifiedBatch",
      "outputs": [
        {
          "internalType": "uint64",
          "name": "",
          "type": "uint64"
        }
      ],
      "stateMutability": "view",
      "type": "function"
    },
    {
      "inputs": [],
      "name": "matic",
      "outputs": [
        {
          "internalType": "contract IERC20Upgradeable",
          "name": "",
          "type": "address"
        }
      ],
      "stateMutability": "view",
      "type": "function"
    },
    {
      "inputs": [],
      "name": "multiplierBatchFee",
      "outputs": [
        {
          "internalType": "uint16",
          "name": "",
          "type": "uint16"
        }
      ],
      "stateMutability": "view",
      "type": "function"
    },
    {
      "inputs": [],
      "name": "networkName",
      "outputs": [
        {
          "internalType": "string",
          "name": "",
          "type": "string"
        }
      ],
      "stateMutability": "view",
      "type": "function"
    },
    {
      "inputs": [
        {
          "internalType": "uint64",
          "name": "initPendingStateNum",
          "type": "uint64"
        },
        {
          "internalType": "uint64",
          "name": "finalPendingStateNum",
          "type": "uint64"
        },
        {
          "internalType": "uint64",
          "name": "initNumBatch",
          "type": "uint64"
        },
        {
          "internalType": "uint64",
          "name": "finalNewBatch",
          "type": "uint64"
        },
        {
          "internalType": "bytes32",
          "name": "newLocalExitRoot",
          "type": "bytes32"
        },
        {
          "internalType": "bytes32",
          "name": "newStateRoot",
          "type": "bytes32"
        },
        {
          "internalType": "bytes",
          "name": "proof",
          "type": "bytes"
        }
      ],
      "name": "overridePendingState",
      "outputs": [],
      "stateMutability": "nonpayable",
      "type": "function"
    },
    {
      "inputs": [],
      "name": "owner",
      "outputs": [
        {
          "internalType": "address",
          "name": "",
          "type": "address"
        }
      ],
      "stateMutability": "view",
      "type": "function"
    },
    {
      "inputs": [],
      "name": "pendingAdmin",
      "outputs": [
        {
          "internalType": "address",
          "name": "",
          "type": "address"
        }
      ],
      "stateMutability": "view",
      "type": "function"
    },
    {
      "inputs": [],
      "name": "pendingStateTimeout",
      "outputs": [
        {
          "internalType": "uint64",
          "name": "",
          "type": "uint64"
        }
      ],
      "stateMutability": "view",
      "type": "function"
    },
    {
      "inputs": [
        {
          "internalType": "uint256",
          "name": "",
          "type": "uint256"
        }
      ],
      "name": "pendingStateTransitions",
      "outputs": [
        {
          "internalType": "uint64",
          "name": "timestamp",
          "type": "uint64"
        },
        {
          "internalType": "uint64",
          "name": "lastVerifiedBatch",
          "type": "uint64"
        },
        {
          "internalType": "bytes32",
          "name": "exitRoot",
          "type": "bytes32"
        },
        {
          "internalType": "bytes32",
          "name": "stateRoot",
          "type": "bytes32"
        }
      ],
      "stateMutability": "view",
      "type": "function"
    },
    {
      "inputs": [
        {
          "internalType": "uint64",
          "name": "initPendingStateNum",
          "type": "uint64"
        },
        {
          "internalType": "uint64",
          "name": "finalPendingStateNum",
          "type": "uint64"
        },
        {
          "internalType": "uint64",
          "name": "initNumBatch",
          "type": "uint64"
        },
        {
          "internalType": "uint64",
          "name": "finalNewBatch",
          "type": "uint64"
        },
        {
          "internalType": "bytes32",
          "name": "newLocalExitRoot",
          "type": "bytes32"
        },
        {
          "internalType": "bytes32",
          "name": "newStateRoot",
          "type": "bytes32"
        },
        {
          "internalType": "bytes",
          "name": "proof",
          "type": "bytes"
        }
      ],
      "name": "proveNonDeterministicPendingState",
      "outputs": [],
      "stateMutability": "nonpayable",
      "type": "function"
    },
    {
      "inputs": [],
      "name": "renounceOwnership",
      "outputs": [],
      "stateMutability": "nonpayable",
      "type": "function"
    },
    {
      "inputs": [],
      "name": "rollupVerifier",
      "outputs": [
        {
          "internalType": "contract IVerifierRollup",
          "name": "",
          "type": "address"
        }
      ],
      "stateMutability": "view",
      "type": "function"
    },
    {
      "inputs": [
        {
          "components": [
            {
              "internalType": "bytes",
              "name": "transactionsHash",
              "type": "bytes"
            },
            {
              "internalType": "bytes32",
              "name": "globalExitRoot",
              "type": "bytes32"
            },
            {
              "internalType": "uint64",
              "name": "timestamp",
              "type": "uint64"
            },
            {
              "internalType": "uint64",
              "name": "minForcedTimestamp",
              "type": "uint64"
            }
          ],
          "internalType": "struct Supernets2.BatchData[]",
          "name": "batches",
          "type": "tuple[]"
        },
        {
          "internalType": "address",
          "name": "l2Coinbase",
          "type": "address"
        },
        {
          "internalType": "bytes",
          "name": "signaturesAndAddrs",
          "type": "bytes"
        }
      ],
      "name": "sequenceBatches",
      "outputs": [],
      "stateMutability": "nonpayable",
      "type": "function"
    },
    {
      "inputs": [
        {
          "components": [
            {
              "internalType": "bytes",
              "name": "transactions",
              "type": "bytes"
            },
            {
              "internalType": "bytes32",
              "name": "globalExitRoot",
              "type": "bytes32"
            },
            {
              "internalType": "uint64",
              "name": "minForcedTimestamp",
              "type": "uint64"
            }
          ],
          "internalType": "struct Supernets2.ForcedBatchData[]",
          "name": "batches",
          "type": "tuple[]"
        }
      ],
      "name": "sequenceForceBatches",
      "outputs": [],
      "stateMutability": "nonpayable",
      "type": "function"
    },
    {
      "inputs": [
        {
          "internalType": "uint64",
          "name": "",
          "type": "uint64"
        }
      ],
      "name": "sequencedBatches",
      "outputs": [
        {
          "internalType": "bytes32",
          "name": "accInputHash",
          "type": "bytes32"
        },
        {
          "internalType": "uint64",
          "name": "sequencedTimestamp",
          "type": "uint64"
        },
        {
          "internalType": "uint64",
          "name": "previousLastBatchSequenced",
          "type": "uint64"
        }
      ],
      "stateMutability": "view",
      "type": "function"
    },
    {
      "inputs": [
        {
          "internalType": "uint64",
          "name": "newforceBatchTimeout",
          "type": "uint64"
        }
      ],
      "name": "setForceBatchTimeout",
      "outputs": [],
      "stateMutability": "nonpayable",
      "type": "function"
    },
    {
      "inputs": [
        {
          "internalType": "uint16",
          "name": "newMultiplierBatchFee",
          "type": "uint16"
        }
      ],
      "name": "setMultiplierBatchFee",
      "outputs": [],
      "stateMutability": "nonpayable",
      "type": "function"
    },
    {
      "inputs": [
        {
          "internalType": "string",
          "name": "_networkName",
          "type": "string"
        }
      ],
      "name": "setNetworkName",
      "outputs": [],
      "stateMutability": "nonpayable",
      "type": "function"
    },
    {
      "inputs": [
        {
          "internalType": "uint64",
          "name": "newPendingStateTimeout",
          "type": "uint64"
        }
      ],
      "name": "setPendingStateTimeout",
      "outputs": [],
      "stateMutability": "nonpayable",
      "type": "function"
    },
    {
      "inputs": [
        {
          "internalType": "uint64",
          "name": "_numBatch",
          "type": "uint64"
        }
      ],
      "name": "setSequencedBatch",
      "outputs": [],
      "stateMutability": "nonpayable",
      "type": "function"
    },
    {
      "inputs": [
        {
          "internalType": "uint64",
          "name": "batchNum",
          "type": "uint64"
        },
        {
          "internalType": "bytes32",
          "name": "accInputData",
          "type": "bytes32"
        },
        {
          "internalType": "uint64",
          "name": "timestamp",
          "type": "uint64"
        },
        {
          "internalType": "uint64",
          "name": "lastPendingStateConsolidated",
          "type": "uint64"
        }
      ],
      "name": "setSequencedBatches",
      "outputs": [],
      "stateMutability": "nonpayable",
      "type": "function"
    },
    {
      "inputs": [
        {
          "internalType": "bytes32",
          "name": "newStateRoot",
          "type": "bytes32"
        },
        {
          "internalType": "uint64",
          "name": "batchNum",
          "type": "uint64"
        }
      ],
      "name": "setStateRoot",
      "outputs": [],
      "stateMutability": "nonpayable",
      "type": "function"
    },
    {
      "inputs": [
        {
          "internalType": "address",
          "name": "newTrustedAggregator",
          "type": "address"
        }
      ],
      "name": "setTrustedAggregator",
      "outputs": [],
      "stateMutability": "nonpayable",
      "type": "function"
    },
    {
      "inputs": [
        {
          "internalType": "uint64",
          "name": "newTrustedAggregatorTimeout",
          "type": "uint64"
        }
      ],
      "name": "setTrustedAggregatorTimeout",
      "outputs": [],
      "stateMutability": "nonpayable",
      "type": "function"
    },
    {
      "inputs": [
        {
          "internalType": "address",
          "name": "newTrustedSequencer",
          "type": "address"
        }
      ],
      "name": "setTrustedSequencer",
      "outputs": [],
      "stateMutability": "nonpayable",
      "type": "function"
    },
    {
      "inputs": [
        {
          "internalType": "string",
          "name": "newTrustedSequencerURL",
          "type": "string"
        }
      ],
      "name": "setTrustedSequencerURL",
      "outputs": [],
      "stateMutability": "nonpayable",
      "type": "function"
    },
    {
      "inputs": [
        {
          "internalType": "uint64",
          "name": "_numBatch",
          "type": "uint64"
        }
      ],
      "name": "setVerifiedBatch",
      "outputs": [],
      "stateMutability": "nonpayable",
      "type": "function"
    },
    {
      "inputs": [
        {
          "internalType": "uint64",
          "name": "newVerifyBatchTimeTarget",
          "type": "uint64"
        }
      ],
      "name": "setVerifyBatchTimeTarget",
      "outputs": [],
      "stateMutability": "nonpayable",
      "type": "function"
    },
    {
      "inputs": [
        {
          "internalType": "address",
          "name": "newPendingAdmin",
          "type": "address"
        }
      ],
      "name": "transferAdminRole",
      "outputs": [],
      "stateMutability": "nonpayable",
      "type": "function"
    },
    {
      "inputs": [
        {
          "internalType": "address",
          "name": "newOwner",
          "type": "address"
        }
      ],
      "name": "transferOwnership",
      "outputs": [],
      "stateMutability": "nonpayable",
      "type": "function"
    },
    {
      "inputs": [],
      "name": "trustedAggregator",
      "outputs": [
        {
          "internalType": "address",
          "name": "",
          "type": "address"
        }
      ],
      "stateMutability": "view",
      "type": "function"
    },
    {
      "inputs": [],
      "name": "trustedAggregatorTimeout",
      "outputs": [
        {
          "internalType": "uint64",
          "name": "",
          "type": "uint64"
        }
      ],
      "stateMutability": "view",
      "type": "function"
    },
    {
      "inputs": [],
      "name": "trustedSequencer",
      "outputs": [
        {
          "internalType": "address",
          "name": "",
          "type": "address"
        }
      ],
      "stateMutability": "view",
      "type": "function"
    },
    {
      "inputs": [],
      "name": "trustedSequencerURL",
      "outputs": [
        {
          "internalType": "string",
          "name": "",
          "type": "string"
        }
      ],
      "stateMutability": "view",
      "type": "function"
    },
    {
      "inputs": [
        {
          "internalType": "uint64",
          "name": "pendingStateNum",
          "type": "uint64"
        },
        {
          "internalType": "uint64",
          "name": "initNumBatch",
          "type": "uint64"
        },
        {
          "internalType": "uint64",
          "name": "finalNewBatch",
          "type": "uint64"
        },
        {
          "internalType": "bytes32",
          "name": "newLocalExitRoot",
          "type": "bytes32"
        },
        {
          "internalType": "bytes32",
          "name": "newStateRoot",
          "type": "bytes32"
        },
        {
          "internalType": "uint256[2]",
          "name": "proofA",
          "type": "uint256[2]"
        },
        {
          "internalType": "uint256[2][2]",
          "name": "proofB",
          "type": "uint256[2][2]"
        },
        {
          "internalType": "uint256[2]",
          "name": "proofC",
          "type": "uint256[2]"
        }
      ],
      "name": "trustedVerifyBatchesMock",
      "outputs": [],
      "stateMutability": "nonpayable",
      "type": "function"
    },
    {
      "inputs": [
        {
          "internalType": "uint64",
          "name": "newLastVerifiedBatch",
          "type": "uint64"
        }
      ],
      "name": "updateBatchFee",
      "outputs": [],
      "stateMutability": "nonpayable",
      "type": "function"
    },
    {
      "inputs": [],
      "name": "verifyBatchTimeTarget",
      "outputs": [
        {
          "internalType": "uint64",
          "name": "",
          "type": "uint64"
        }
      ],
      "stateMutability": "view",
      "type": "function"
    },
    {
      "inputs": [
        {
          "internalType": "uint64",
          "name": "pendingStateNum",
          "type": "uint64"
        },
        {
          "internalType": "uint64",
          "name": "initNumBatch",
          "type": "uint64"
        },
        {
          "internalType": "uint64",
          "name": "finalNewBatch",
          "type": "uint64"
        },
        {
          "internalType": "bytes32",
          "name": "newLocalExitRoot",
          "type": "bytes32"
        },
        {
          "internalType": "bytes32",
          "name": "newStateRoot",
          "type": "bytes32"
        },
        {
          "internalType": "bytes",
          "name": "proof",
          "type": "bytes"
        }
      ],
      "name": "verifyBatches",
      "outputs": [],
      "stateMutability": "nonpayable",
      "type": "function"
    },
    {
      "inputs": [
        {
          "internalType": "uint64",
          "name": "pendingStateNum",
          "type": "uint64"
        },
        {
          "internalType": "uint64",
          "name": "initNumBatch",
          "type": "uint64"
        },
        {
          "internalType": "uint64",
          "name": "finalNewBatch",
          "type": "uint64"
        },
        {
          "internalType": "bytes32",
          "name": "newLocalExitRoot",
          "type": "bytes32"
        },
        {
          "internalType": "bytes32",
          "name": "newStateRoot",
          "type": "bytes32"
        },
        {
          "internalType": "bytes",
          "name": "proof",
          "type": "bytes"
        }
      ],
      "name": "verifyBatchesTrustedAggregator",
      "outputs": [],
      "stateMutability": "nonpayable",
      "type": "function"
    }
  ],
  "bytecode": "0x6101606040523480156200001257600080fd5b5060405162007217380380620072178339810160408190526200003591620000ac565b6001600160a01b0396871660c05294861660805292851660a05290841660e052909216610100526001600160401b039182166101205216610140526200014f565b6001600160a01b03811681146200008c57600080fd5b50565b80516001600160401b0381168114620000a757600080fd5b919050565b600080600080600080600060e0888a031215620000c857600080fd5b8751620000d58162000076565b6020890151909750620000e88162000076565b6040890151909650620000fb8162000076565b60608901519095506200010e8162000076565b6080890151909450620001218162000076565b92506200013160a089016200008f565b91506200014160c089016200008f565b905092959891949750929550565b60805160a05160c05160e051610100516101205161014051616fe1620002366000396000818161085f01528181611b7d0152613cd90152600081816109f20152611b530152600081816106c40152612bcf0152600081816109a501528181612e1f015281816143730152615082015260008181610b840152818161182d015281816121f101528181612a140152818161352f015281816145a0015281816147fb01526152d3015260008181610c5701528181614f6f015261563f015260008181610ac101528181612ded01528181613037015281816147cf015261572e0152616fe16000f3fe608060405234801561001057600080fd5b50600436106104a85760003560e01c80638da5cb5b1161026b578063c89e42df11610150578063e7a7ed02116100c8578063f14916d611610097578063f851a4401161007c578063f851a44014610cdf578063f8b823e414610cff578063fe16564f14610d0857600080fd5b8063f14916d614610cb9578063f2fde38b14610ccc57600080fd5b8063e7a7ed0214610c22578063e8bf92ed14610c52578063eaeb077b14610c79578063ed6b010414610c8c57600080fd5b8063d8d1091b1161011f578063dbc1697611610104578063dbc1697614610bf4578063e0d1744114610bfc578063e6ad707e14610c0f57600080fd5b8063d8d1091b14610bb9578063d939b31514610bcc57600080fd5b8063c89e42df14610b3d578063cfa8ed4714610b50578063d02103ca14610b7f578063d2e129f914610ba657600080fd5b8063adc879e9116101e3578063b6b0b097116101b2578063c0cad30211610197578063c0cad30214610af6578063c0ed84e014610b09578063c754c7ed14610b1157600080fd5b8063b6b0b09714610abc578063ba58ae3914610ae357600080fd5b8063adc879e9146109ed578063afd23cbe14610a14578063b4d63f5814610a42578063b4f77ea914610aa957600080fd5b80639c9f3dfe1161023a578063a3c573eb1161021f578063a3c573eb146109a0578063a50a164b146109c7578063ada8f919146109da57600080fd5b80639c9f3dfe1461097a578063a066215c1461098d57600080fd5b80638da5cb5b1461092e57806396dc3d391461094c57806399f5634e1461095f5780639b7967601461096757600080fd5b80634df61d24116103915780636ff512cc116103095780637fcb3653116102d8578063837a4738116102bd578063837a473814610881578063841b24d7146108f65780638c3d73011461092657600080fd5b80637fcb365314610846578063831c7ead1461085a57600080fd5b80636ff512cc14610805578063715018a6146108185780637215541a146108205780637eac5dc21461083357600080fd5b8063542028d5116103605780635ec91958116103455780635ec91958146107d557806360469169146107dd5780636b8616ce146107e557600080fd5b8063542028d51461072c578063574f649e1461073457600080fd5b80634df61d24146106bf5780634e487706146106e65780634fd70464146106f95780635392c5e01461070c57600080fd5b80632678224711610424578063423fa856116103f3578063458c0477116103d8578063458c0477146106785780634a1a89a71461068c5780634a910e6a146106ac57600080fd5b8063423fa85614610630578063456052671461065057600080fd5b8063267822471461059957806329878983146105de578063383b3be81461060a578063394218e91461061d57600080fd5b806310a01a721161047b5780631816b7e5116104605780631816b7e51461055f57806319d8ac6114610572578063220d78991461058657600080fd5b806310a01a721461052f57806315064c961461054257600080fd5b80630808270c146104ad5780630a0d9fbe146104c25780630eaa86ea146104f9578063107bf28c1461051a575b600080fd5b6104c06104bb3660046160d4565b610d1b565b005b606f546104db90610100900467ffffffffffffffff1681565b60405167ffffffffffffffff90911681526020015b60405180910390f35b61050c61050736600461616d565b610dce565b6040519081526020016104f0565b6105226112a6565b6040516104f09190616230565b6104c061053d366004616261565b611334565b606f5461054f9060ff1681565b60405190151581526020016104f0565b6104c061056d3660046162f4565b6118ec565b6073546104db9067ffffffffffffffff1681565b610522610594366004616318565b611a04565b607b546105b99073ffffffffffffffffffffffffffffffffffffffff1681565b60405173ffffffffffffffffffffffffffffffffffffffff90911681526020016104f0565b6074546105b99068010000000000000000900473ffffffffffffffffffffffffffffffffffffffff1681565b61054f610618366004616365565b611bdb565b6104c061062b366004616365565b611c31565b6073546104db9068010000000000000000900467ffffffffffffffff1681565b6073546104db90700100000000000000000000000000000000900467ffffffffffffffff1681565b6079546104db9067ffffffffffffffff1681565b6079546104db9068010000000000000000900467ffffffffffffffff1681565b6104c06106ba366004616365565b611db5565b6105b97f000000000000000000000000000000000000000000000000000000000000000081565b6104c06106f4366004616365565b611e68565b6104c0610707366004616380565b611fec565b61050c61071a366004616365565b60756020526000908152604090205481565b610522612382565b61050c610742366004616507565b835160209485012060408051808701979097528681019190915260608087019490945260c09290921b7fffffffffffffffff00000000000000000000000000000000000000000000000016608086015290911b7fffffffffffffffffffffffffffffffffffffffff0000000000000000000000001660888401528051808403607c018152609c9093019052815191012090565b6104c061238f565b61050c61248f565b61050c6107f3366004616365565b60716020526000908152604090205481565b6104c0610813366004616579565b6124a5565b6104c061257a565b6104c061082e366004616365565b61258e565b6104c06108413660046165d9565b6126fe565b6074546104db9067ffffffffffffffff1681565b6104db7f000000000000000000000000000000000000000000000000000000000000000081565b6108ca61088f36600461665d565b60786020526000908152604090208054600182015460029092015467ffffffffffffffff808316936801000000000000000090930416919084565b6040805167ffffffffffffffff95861681529490931660208501529183015260608201526080016104f0565b6079546104db907801000000000000000000000000000000000000000000000000900467ffffffffffffffff1681565b6104c0612ee0565b60335473ffffffffffffffffffffffffffffffffffffffff166105b9565b6104c061095a366004616365565b612fac565b61050c612fef565b6104c0610975366004616365565b613148565b6104c0610988366004616365565b613197565b6104c061099b366004616365565b613313565b6105b97f000000000000000000000000000000000000000000000000000000000000000081565b6104c06109d5366004616380565b613419565b6104c06109e8366004616579565b6135de565b6104db7f000000000000000000000000000000000000000000000000000000000000000081565b606f54610a2f906901000000000000000000900461ffff1681565b60405161ffff90911681526020016104f0565b610a83610a50366004616365565b6072602052600090815260409020805460019091015467ffffffffffffffff808216916801000000000000000090041683565b6040805193845267ffffffffffffffff92831660208501529116908201526060016104f0565b6104c0610ab7366004616365565b6136a2565b6105b97f000000000000000000000000000000000000000000000000000000000000000081565b61054f610af136600461665d565b6136b3565b6104c0610b04366004616676565b61373d565b6104db613755565b607b546104db9074010000000000000000000000000000000000000000900467ffffffffffffffff1681565b6104c0610b4b366004616676565b6137aa565b606f546105b9906b010000000000000000000000900473ffffffffffffffffffffffffffffffffffffffff1681565b6105b97f000000000000000000000000000000000000000000000000000000000000000081565b6104c0610bb43660046166ab565b613837565b6104c0610bc736600461675e565b613d7e565b6079546104db90700100000000000000000000000000000000900467ffffffffffffffff1681565b6104c0614320565b6104c0610c0a3660046167a0565b6143f9565b6104c0610c1d3660046160d4565b614489565b6073546104db907801000000000000000000000000000000000000000000000000900467ffffffffffffffff1681565b6105b97f000000000000000000000000000000000000000000000000000000000000000081565b6104c0610c873660046167ed565b614699565b607b5461054f907c0100000000000000000000000000000000000000000000000000000000900460ff1681565b6104c0610cc7366004616579565b614a8f565b6104c0610cda366004616579565b614b61565b607a546105b99073ffffffffffffffffffffffffffffffffffffffff1681565b61050c60705481565b6104c0610d16366004616839565b614c15565b606f5460ff1615610d58576040517f2f0047fc00000000000000000000000000000000000000000000000000000000815260040160405180910390fd5b610d688888888888888888614c38565b67ffffffffffffffff85166000908152607560209081526040918290205482519081529081018590527f1f44c21118c4603cfb4e1b621dbcfa2b73efcececee2b99b620b2953d33a7010910160405180910390a1610dc4615080565b5050505050505050565b6000806000610ddb613755565b905067ffffffffffffffff881615610fa85760795467ffffffffffffffff9081169089161115610eb8576040517f08c379a000000000000000000000000000000000000000000000000000000000815260206004820152605660248201527f53757065726e657473323a3a766572696679426174636865733a2070656e646960448201527f6e6753746174654e756d206d757374206265206c657373206f7220657175616c60648201527f207468616e206c61737450656e64696e67537461746500000000000000000000608482015260a4015b60405180910390fd5b67ffffffffffffffff8089166000908152607860205260409020600281015481549094509091898116680100000000000000009092041614610fa2576040517f08c379a000000000000000000000000000000000000000000000000000000000815260206004820152604a60248201527f53757065726e657473323a3a766572696679426174636865733a20696e69744e60448201527f756d4261746368206d757374206d61746368207468652070656e64696e67207360648201527f7461746520626174636800000000000000000000000000000000000000000000608482015260a401610eaf565b50611141565b67ffffffffffffffff8716600090815260756020526040902054915081611077576040517f08c379a000000000000000000000000000000000000000000000000000000000815260206004820152604160248201527f53757065726e657473323a3a766572696679426174636865733a20696e69744e60448201527f756d426174636820737461746520726f6f7420646f6573206e6f74206578697360648201527f7400000000000000000000000000000000000000000000000000000000000000608482015260a401610eaf565b8067ffffffffffffffff168767ffffffffffffffff161115611141576040517f08c379a000000000000000000000000000000000000000000000000000000000815260206004820152605b60248201527f53757065726e657473323a3a766572696679426174636865733a20696e69744e60448201527f756d4261746368206d757374206265206c657373206f7220657175616c20746860648201527f616e2063757272656e744c617374566572696669656442617463680000000000608482015260a401610eaf565b8067ffffffffffffffff168667ffffffffffffffff161161120a576040517f08c379a000000000000000000000000000000000000000000000000000000000815260206004820152605560248201527f53757065726e657473323a3a766572696679426174636865733a2066696e616c60448201527f4e65774261746368206d75737420626520626967676572207468616e2063757260648201527f72656e744c617374566572696669656442617463680000000000000000000000608482015260a401610eaf565b60006112198888888689611a04565b905060007f30644e72e131a029b85045b68181585d2833e84879b9709143e1f593f000000160028360405161124e9190616865565b602060405180830381855afa15801561126b573d6000803e3d6000fd5b5050506040513d601f19601f8201168201806040525081019061128e9190616881565b61129891906168c9565b9a9950505050505050505050565b607780546112b3906168dd565b80601f01602080910402602001604051908101604052809291908181526020018280546112df906168dd565b801561132c5780601f106113015761010080835404028352916020019161132c565b820191906000526020600020905b81548152906001019060200180831161130f57829003601f168201915b505050505081565b61133c615108565b600080611347613755565b905067ffffffffffffffff8a161561150f5760795467ffffffffffffffff908116908b16111561141f576040517f08c379a000000000000000000000000000000000000000000000000000000000815260206004820152605660248201527f53757065726e657473323a3a766572696679426174636865733a2070656e646960448201527f6e6753746174654e756d206d757374206265206c657373206f7220657175616c60648201527f207468616e206c61737450656e64696e67537461746500000000000000000000608482015260a401610eaf565b67ffffffffffffffff808b1660009081526078602052604090206002810154815490945090918b8116680100000000000000009092041614611509576040517f08c379a000000000000000000000000000000000000000000000000000000000815260206004820152604a60248201527f53757065726e657473323a3a766572696679426174636865733a20696e69744e60448201527f756d4261746368206d757374206d61746368207468652070656e64696e67207360648201527f7461746520626174636800000000000000000000000000000000000000000000608482015260a401610eaf565b506116a8565b67ffffffffffffffff89166000908152607560205260409020549150816115de576040517f08c379a000000000000000000000000000000000000000000000000000000000815260206004820152604160248201527f53757065726e657473323a3a766572696679426174636865733a20696e69744e60448201527f756d426174636820737461746520726f6f7420646f6573206e6f74206578697360648201527f7400000000000000000000000000000000000000000000000000000000000000608482015260a401610eaf565b8067ffffffffffffffff168967ffffffffffffffff1611156116a8576040517f08c379a000000000000000000000000000000000000000000000000000000000815260206004820152605b60248201527f53757065726e657473323a3a766572696679426174636865733a20696e69744e60448201527f756d4261746368206d757374206265206c657373206f7220657175616c20746860648201527f616e2063757272656e744c617374566572696669656442617463680000000000608482015260a401610eaf565b8067ffffffffffffffff168867ffffffffffffffff1611611771576040517f08c379a000000000000000000000000000000000000000000000000000000000815260206004820152605560248201527f53757065726e657473323a3a766572696679426174636865733a2066696e616c60448201527f4e65774261746368206d75737420626520626967676572207468616e2063757260648201527f72656e744c617374566572696669656442617463680000000000000000000000608482015260a401610eaf565b60006117808a8a8a868b611a04565b607480547fffffffffffffffffffffffffffffffffffffffffffffffff00000000000000001667ffffffffffffffff8c8116918217909255600090815260756020526040902089905560795491925016156117fe57607980547fffffffffffffffffffffffffffffffff000000000000000000000000000000001690555b6040517f33d6247d000000000000000000000000000000000000000000000000000000008152600481018990527f000000000000000000000000000000000000000000000000000000000000000073ffffffffffffffffffffffffffffffffffffffff16906333d6247d90602401600060405180830381600087803b15801561188657600080fd5b505af115801561189a573d6000803e3d6000fd5b505060405189815233925067ffffffffffffffff8c1691507fcb339b570a7f0b25afa7333371ff11192092a0aeace12b671f4c212f2815c6fe9060200160405180910390a35050505050505050505050565b607a5473ffffffffffffffffffffffffffffffffffffffff16331461193d576040517f4755657900000000000000000000000000000000000000000000000000000000815260040160405180910390fd5b6103e88161ffff16108061195657506103ff8161ffff16115b1561198d576040517f4c2533c800000000000000000000000000000000000000000000000000000000815260040160405180910390fd5b606f80547fffffffffffffffffffffffffffffffffffffffffff0000ffffffffffffffffff16690100000000000000000061ffff8416908102919091179091556040519081527f7019933d795eba185c180209e8ae8bffbaa25bcef293364687702c31f4d302c5906020015b60405180910390a150565b67ffffffffffffffff8086166000818152607260205260408082205493881682529020546060929115801590611a38575081155b15611a6f576040517f6818c29e00000000000000000000000000000000000000000000000000000000815260040160405180910390fd5b80611aa6576040517f66385b5100000000000000000000000000000000000000000000000000000000815260040160405180910390fd5b611aaf846136b3565b611ae5576040517f176b913c00000000000000000000000000000000000000000000000000000000815260040160405180910390fd5b604080517fffffffffffffffffffffffffffffffffffffffff0000000000000000000000003360601b166020820152603481019690965260548601929092527fffffffffffffffff00000000000000000000000000000000000000000000000060c098891b811660748701527f0000000000000000000000000000000000000000000000000000000000000000891b8116607c8701527f0000000000000000000000000000000000000000000000000000000000000000891b81166084870152608c86019490945260ac85015260cc840194909452509290931b90911660ec830152805180830360d401815260f4909201905290565b60795467ffffffffffffffff82811660009081526078602052604081205490924292611c1f927001000000000000000000000000000000009092048116911661695f565b67ffffffffffffffff16111592915050565b607a5473ffffffffffffffffffffffffffffffffffffffff163314611c82576040517f4755657900000000000000000000000000000000000000000000000000000000815260040160405180910390fd5b62093a8067ffffffffffffffff82161115611cc9576040517f1d06e87900000000000000000000000000000000000000000000000000000000815260040160405180910390fd5b606f5460ff16611d385760795467ffffffffffffffff7801000000000000000000000000000000000000000000000000909104811690821610611d38576040517f401636df00000000000000000000000000000000000000000000000000000000815260040160405180910390fd5b6079805477ffffffffffffffffffffffffffffffffffffffffffffffff16780100000000000000000000000000000000000000000000000067ffffffffffffffff8416908102919091179091556040519081527f1f4fa24c2e4bad19a7f3ec5c5485f70d46c798461c2e684f55bbd0fc661373a1906020016119f9565b60745468010000000000000000900473ffffffffffffffffffffffffffffffffffffffff163314611e5c57606f5460ff1615611e1d576040517f2f0047fc00000000000000000000000000000000000000000000000000000000815260040160405180910390fd5b611e2681611bdb565b611e5c576040517f0ce9e4a200000000000000000000000000000000000000000000000000000000815260040160405180910390fd5b611e6581615189565b50565b607a5473ffffffffffffffffffffffffffffffffffffffff163314611eb9576040517f4755657900000000000000000000000000000000000000000000000000000000815260040160405180910390fd5b62093a8067ffffffffffffffff82161115611f00576040517ff5e37f2f00000000000000000000000000000000000000000000000000000000815260040160405180910390fd5b606f5460ff16611f6b57607b5467ffffffffffffffff74010000000000000000000000000000000000000000909104811690821610611f6b576040517ff5e37f2f00000000000000000000000000000000000000000000000000000000815260040160405180910390fd5b607b80547fffffffff0000000000000000ffffffffffffffffffffffffffffffffffffffff167401000000000000000000000000000000000000000067ffffffffffffffff8416908102919091179091556040519081527fa7eb6cb8a613eb4e8bddc1ac3d61ec6cf10898760f0b187bcca794c6ca6fa40b906020016119f9565b606f5460ff1615612029576040517f2f0047fc00000000000000000000000000000000000000000000000000000000815260040160405180910390fd5b60795467ffffffffffffffff86811660009081526072602052604090206001015442926120769278010000000000000000000000000000000000000000000000009091048116911661695f565b67ffffffffffffffff1611156120b8576040517f8a0704d300000000000000000000000000000000000000000000000000000000815260040160405180910390fd5b6103e86120c58787616987565b67ffffffffffffffff161115612107576040517fb59f753a00000000000000000000000000000000000000000000000000000000815260040160405180910390fd5b6121168787878787878761539c565b61211f85615755565b607954700100000000000000000000000000000000900467ffffffffffffffff1660000361226757607480547fffffffffffffffffffffffffffffffffffffffffffffffff00000000000000001667ffffffffffffffff878116918217909255600090815260756020526040902084905560795416156121c257607980547fffffffffffffffffffffffffffffffff000000000000000000000000000000001690555b6040517f33d6247d000000000000000000000000000000000000000000000000000000008152600481018590527f000000000000000000000000000000000000000000000000000000000000000073ffffffffffffffffffffffffffffffffffffffff16906333d6247d90602401600060405180830381600087803b15801561224a57600080fd5b505af115801561225e573d6000803e3d6000fd5b50505050612337565b61226f615935565b6079805467ffffffffffffffff16906000612289836169a8565b825467ffffffffffffffff9182166101009390930a92830292820219169190911790915560408051608081018252428316815288831660208083019182528284018a8152606084018a815260795487166000908152607890935294909120925183549251861668010000000000000000027fffffffffffffffffffffffffffffffff000000000000000000000000000000009093169516949094171781559151600183015551600290910155505b604051838152339067ffffffffffffffff8716907f9c72852172521097ba7e1482e6b44b351323df0155f97f4ea18fcec28e1f5966906020015b60405180910390a350505050505050565b607680546112b3906168dd565b607a5473ffffffffffffffffffffffffffffffffffffffff1633146123e0576040517f4755657900000000000000000000000000000000000000000000000000000000815260040160405180910390fd5b607b547c0100000000000000000000000000000000000000000000000000000000900460ff1661243c576040517ff6ba91a100000000000000000000000000000000000000000000000000000000815260040160405180910390fd5b607b80547fffffff00ffffffffffffffffffffffffffffffffffffffffffffffffffffffff1690556040517f854dd6ce5a1445c4c54388b21cffd11cf5bba1b9e763aec48ce3da75d617412f90600090a1565b600060705460646124a091906169cf565b905090565b607a5473ffffffffffffffffffffffffffffffffffffffff1633146124f6576040517f4755657900000000000000000000000000000000000000000000000000000000815260040160405180910390fd5b606f80547fff0000000000000000000000000000000000000000ffffffffffffffffffffff166b01000000000000000000000073ffffffffffffffffffffffffffffffffffffffff8416908102919091179091556040519081527ff54144f9611984021529f814a1cb6a41e22c58351510a0d9f7e822618abb9cc0906020016119f9565b612582615108565b61258c60006159e2565b565b60335473ffffffffffffffffffffffffffffffffffffffff1633146126f65760006125b7613755565b90508067ffffffffffffffff168267ffffffffffffffff1611612606576040517f812a372d00000000000000000000000000000000000000000000000000000000815260040160405180910390fd5b60735467ffffffffffffffff680100000000000000009091048116908316118061264c575067ffffffffffffffff80831660009081526072602052604090206001015416155b15612683576040517f98c5c01400000000000000000000000000000000000000000000000000000000815260040160405180910390fd5b67ffffffffffffffff80831660009081526072602052604090206001015442916126b29162093a80911661695f565b67ffffffffffffffff1611156126f4576040517fd257555a00000000000000000000000000000000000000000000000000000000815260040160405180910390fd5b505b611e65615080565b606f5460ff161561273b576040517f2f0047fc00000000000000000000000000000000000000000000000000000000815260040160405180910390fd5b606f546b010000000000000000000000900473ffffffffffffffffffffffffffffffffffffffff16331461279b576040517f11e7be1500000000000000000000000000000000000000000000000000000000815260040160405180910390fd5b8360008190036127d7576040517fcb591a5f00000000000000000000000000000000000000000000000000000000815260040160405180910390fd5b6103e8811115612813576040517fb59f753a00000000000000000000000000000000000000000000000000000000815260040160405180910390fd5b60735467ffffffffffffffff6801000000000000000082048116600081815260726020526040812054838516949293700100000000000000000000000000000000909304909216919082905b86811015612b915760008c8c8381811061287b5761287b6169e6565b905060200281019061288d9190616a15565b61289690616a49565b606081015190915067ffffffffffffffff16156129d157846128b7816169a8565b95505060008160000151826020015183606001516040516020016128dd93929190616ad6565b604080517fffffffffffffffffffffffffffffffffffffffffffffffffffffffffffffffe0818403018152918152815160209283012067ffffffffffffffff8916600090815260719093529120549091508114612966576040517fce3d755e00000000000000000000000000000000000000000000000000000000815260040160405180910390fd5b67ffffffffffffffff80871660009081526071602052604080822091909155606084015190840151908216911610156129cb576040517f7f7ab87200000000000000000000000000000000000000000000000000000000815260040160405180910390fd5b50612acf565b602081015115801590612a98575060208101516040517f257b363200000000000000000000000000000000000000000000000000000000815260048101919091527f000000000000000000000000000000000000000000000000000000000000000073ffffffffffffffffffffffffffffffffffffffff169063257b3632906024016020604051808303816000875af1158015612a72573d6000803e3d6000fd5b505050506040513d601f19601f82011682018060405250810190612a969190616881565b155b15612acf576040517f73bd668d00000000000000000000000000000000000000000000000000000000815260040160405180910390fd5b8667ffffffffffffffff16816040015167ffffffffffffffff161080612b02575042816040015167ffffffffffffffff16115b15612b39576040517fea82791600000000000000000000000000000000000000000000000000000000815260040160405180910390fd5b838160000151826020015183604001518e604051602001612b5e959493929190616b22565b60405160208183030381529060405280519060200120935080604001519650508080612b8990616ba6565b91505061285f565b506040517fc7a823e000000000000000000000000000000000000000000000000000000000815273ffffffffffffffffffffffffffffffffffffffff7f0000000000000000000000000000000000000000000000000000000000000000169063c7a823e090612c089085908c908c90600401616c27565b60006040518083038186803b158015612c2057600080fd5b505afa158015612c34573d6000803e3d6000fd5b505050508584612c44919061695f565b60735490945067ffffffffffffffff780100000000000000000000000000000000000000000000000090910481169084161115612cad576040517fc630a00d00000000000000000000000000000000000000000000000000000000815260040160405180910390fd5b6000612cb98285616987565b612ccd9067ffffffffffffffff1688616c4a565b604080516060810182528581524267ffffffffffffffff908116602080840191825260738054680100000000000000009081900485168688019081528d861660008181526072909552979093209551865592516001909501805492519585167fffffffffffffffffffffffffffffffff000000000000000000000000000000009384161795851684029590951790945583548c8416911617930292909217905590915082811690851614612dc357607380547fffffffffffffffff0000000000000000ffffffffffffffffffffffffffffffff1670010000000000000000000000000000000067ffffffffffffffff8716021790555b612e15333083607054612dd691906169cf565b73ffffffffffffffffffffffffffffffffffffffff7f000000000000000000000000000000000000000000000000000000000000000016929190615a59565b612e1d615935565b7f000000000000000000000000000000000000000000000000000000000000000073ffffffffffffffffffffffffffffffffffffffff166379e2cf976040518163ffffffff1660e01b8152600401600060405180830381600087803b158015612e8557600080fd5b505af1158015612e99573d6000803e3d6000fd5b505060405167ffffffffffffffff881692507f303446e6a8cb73c83dff421c0b1d5e5ce0719dab1bff13660fc254e58cc17fce9150600090a2505050505050505050505050565b607b5473ffffffffffffffffffffffffffffffffffffffff163314612f31576040517fd1ec4b2300000000000000000000000000000000000000000000000000000000815260040160405180910390fd5b607b54607a80547fffffffffffffffffffffffff00000000000000000000000000000000000000001673ffffffffffffffffffffffffffffffffffffffff90921691821790556040519081527f056dc487bbf0795d0bbb1b4f0af523a855503cff740bfb4d5475f7a90c091e8e9060200160405180910390a1565b612fb4615108565b607480547fffffffffffffffffffffffffffffffffffffffffffffffff00000000000000001667ffffffffffffffff92909216919091179055565b6040517f70a08231000000000000000000000000000000000000000000000000000000008152306004820152600090819073ffffffffffffffffffffffffffffffffffffffff7f000000000000000000000000000000000000000000000000000000000000000016906370a0823190602401602060405180830381865afa15801561307e573d6000803e3d6000fd5b505050506040513d601f19601f820116820180604052508101906130a29190616881565b905060006130ae613755565b60735467ffffffffffffffff6801000000000000000082048116916131069170010000000000000000000000000000000082048116917801000000000000000000000000000000000000000000000000900416616987565b613110919061695f565b61311a9190616987565b67ffffffffffffffff169050806000036131375760009250505090565b6131418183616c5d565b9250505090565b613150615108565b6073805467ffffffffffffffff90921668010000000000000000027fffffffffffffffffffffffffffffffff0000000000000000ffffffffffffffff909216919091179055565b607a5473ffffffffffffffffffffffffffffffffffffffff1633146131e8576040517f4755657900000000000000000000000000000000000000000000000000000000815260040160405180910390fd5b62093a8067ffffffffffffffff8216111561322f576040517fcc96507000000000000000000000000000000000000000000000000000000000815260040160405180910390fd5b606f5460ff166132965760795467ffffffffffffffff700100000000000000000000000000000000909104811690821610613296576040517f48a05a9000000000000000000000000000000000000000000000000000000000815260040160405180910390fd5b607980547fffffffffffffffff0000000000000000ffffffffffffffffffffffffffffffff1670010000000000000000000000000000000067ffffffffffffffff8416908102919091179091556040519081527fc4121f4e22c69632ebb7cf1f462be0511dc034f999b52013eddfb24aab765c75906020016119f9565b607a5473ffffffffffffffffffffffffffffffffffffffff163314613364576040517f4755657900000000000000000000000000000000000000000000000000000000815260040160405180910390fd5b620151808167ffffffffffffffff1611156133ab576040517fe067dfe800000000000000000000000000000000000000000000000000000000815260040160405180910390fd5b606f80547fffffffffffffffffffffffffffffffffffffffffffffff0000000000000000ff1661010067ffffffffffffffff8416908102919091179091556040519081527f1b023231a1ab6b5d93992f168fb44498e1a7e64cef58daff6f1c216de6a68c28906020016119f9565b60745468010000000000000000900473ffffffffffffffffffffffffffffffffffffffff163314613476576040517fbbcbbc0500000000000000000000000000000000000000000000000000000000815260040160405180910390fd5b6134858787878787878761539c565b607480547fffffffffffffffffffffffffffffffffffffffffffffffff00000000000000001667ffffffffffffffff8781169182179092556000908152607560205260409020849055607954161561350057607980547fffffffffffffffffffffffffffffffff000000000000000000000000000000001690555b6040517f33d6247d000000000000000000000000000000000000000000000000000000008152600481018590527f000000000000000000000000000000000000000000000000000000000000000073ffffffffffffffffffffffffffffffffffffffff16906333d6247d90602401600060405180830381600087803b15801561358857600080fd5b505af115801561359c573d6000803e3d6000fd5b505060405185815233925067ffffffffffffffff881691507fcb339b570a7f0b25afa7333371ff11192092a0aeace12b671f4c212f2815c6fe90602001612371565b607a5473ffffffffffffffffffffffffffffffffffffffff16331461362f576040517f4755657900000000000000000000000000000000000000000000000000000000815260040160405180910390fd5b607b80547fffffffffffffffffffffffff00000000000000000000000000000000000000001673ffffffffffffffffffffffffffffffffffffffff83169081179091556040519081527fa5b56b7906fd0a20e3f35120dd8343db1e12e037a6c90111c7e42885e82a1ce6906020016119f9565b6136aa615108565b611e6581615755565b600067ffffffff0000000167ffffffffffffffff83161080156136eb575067ffffffff00000001604083901c67ffffffffffffffff16105b801561370c575067ffffffff00000001608083901c67ffffffffffffffff16105b8015613723575067ffffffff0000000160c083901c105b1561373057506001919050565b506000919050565b919050565b613745615108565b60776137518282616cbf565b5050565b60795460009067ffffffffffffffff1615613799575060795467ffffffffffffffff9081166000908152607860205260409020546801000000000000000090041690565b5060745467ffffffffffffffff1690565b607a5473ffffffffffffffffffffffffffffffffffffffff1633146137fb576040517f4755657900000000000000000000000000000000000000000000000000000000815260040160405180910390fd5b60766138078282616cbf565b507f6b8f723a4c7a5335cafae8a598a0aa0301be1387c037dccc085b62add6448b20816040516119f99190616230565b600054610100900460ff16158080156138575750600054600160ff909116105b806138715750303b158015613871575060005460ff166001145b6138fd576040517f08c379a000000000000000000000000000000000000000000000000000000000815260206004820152602e60248201527f496e697469616c697a61626c653a20636f6e747261637420697320616c72656160448201527f647920696e697469616c697a65640000000000000000000000000000000000006064820152608401610eaf565b600080547fffffffffffffffffffffffffffffffffffffffffffffffffffffffffffffff00166001179055801561395b57600080547fffffffffffffffffffffffffffffffffffffffffffffffffffffffffffff00ff166101001790555b6139686020880188616579565b607a80547fffffffffffffffffffffffff00000000000000000000000000000000000000001673ffffffffffffffffffffffffffffffffffffffff929092169190911790556139bd6040880160208901616579565b606f805473ffffffffffffffffffffffffffffffffffffffff929092166b010000000000000000000000027fff0000000000000000000000000000000000000000ffffffffffffffffffffff909216919091179055613a226080880160608901616579565b6074805473ffffffffffffffffffffffffffffffffffffffff9290921668010000000000000000027fffffffff0000000000000000000000000000000000000000ffffffffffffffff9092169190911790556000805260756020527ff9e3fbf150b7a0077118526f473c53cb4734f166167e2c6213e3567dd390b4ad8690556076613aad8682616cbf565b506077613aba8582616cbf565b5062093a80613acf6060890160408a01616365565b67ffffffffffffffff161115613b11576040517fcc96507000000000000000000000000000000000000000000000000000000000815260040160405180910390fd5b613b216060880160408901616365565b6079805467ffffffffffffffff92909216700100000000000000000000000000000000027fffffffffffffffff0000000000000000ffffffffffffffffffffffffffffffff90921691909117905562093a80613b8360a0890160808a01616365565b67ffffffffffffffff161115613bc5576040517f1d06e87900000000000000000000000000000000000000000000000000000000815260040160405180910390fd5b613bd560a0880160808901616365565b6079805477ffffffffffffffffffffffffffffffffffffffffffffffff16780100000000000000000000000000000000000000000000000067ffffffffffffffff939093169290920291909117905567016345785d8a0000607055606f80547fffffffffffffffffffffffffffffffffffffffffff00000000000000000000ff166a03ea000000000000070800179055607b80547fffffff000000000000000000ffffffffffffffffffffffffffffffffffffffff167c0100000000000697800000000000000000000000000000000000000000179055613cb4615b3b565b7f13e60734641bd97ab6e444f419277d9983e2c3eab9bb631a578ffa07756b635160007f00000000000000000000000000000000000000000000000000000000000000008585604051613d0a9493929190616dd9565b60405180910390a18015613d7557600080547fffffffffffffffffffffffffffffffffffffffffffffffffffffffffffff00ff169055604051600181527f7f26b83ff96e1f2b6a682f133852f6798a09c465da95921460cefb38474024989060200160405180910390a15b50505050505050565b607b547c0100000000000000000000000000000000000000000000000000000000900460ff1615613ddb576040517f24eff8c300000000000000000000000000000000000000000000000000000000815260040160405180910390fd5b606f5460ff1615613e18576040517f2f0047fc00000000000000000000000000000000000000000000000000000000815260040160405180910390fd5b806000819003613e54576040517fcb591a5f00000000000000000000000000000000000000000000000000000000815260040160405180910390fd5b6103e8811115613e90576040517fb59f753a00000000000000000000000000000000000000000000000000000000815260040160405180910390fd5b60735467ffffffffffffffff78010000000000000000000000000000000000000000000000008204811691613edb918491700100000000000000000000000000000000900416616e11565b1115613f13576040517fc630a00d00000000000000000000000000000000000000000000000000000000815260040160405180910390fd5b60735467ffffffffffffffff680100000000000000008204811660008181526072602052604081205491937001000000000000000000000000000000009004909216915b848110156141bd576000878783818110613f7357613f736169e6565b9050602002810190613f859190616e24565b613f8e90616e58565b905083613f9a816169a8565b82518051602091820120818501516040808701519051949950919450600093613ffc9386939101928352602083019190915260c01b7fffffffffffffffff00000000000000000000000000000000000000000000000016604082015260480190565b604080517fffffffffffffffffffffffffffffffffffffffffffffffffffffffffffffffe0818403018152918152815160209283012067ffffffffffffffff8916600090815260719093529120549091508114614085576040517fce3d755e00000000000000000000000000000000000000000000000000000000815260040160405180910390fd5b67ffffffffffffffff86166000908152607160205260408120556140aa600189616c4a565b84036141195742607b60149054906101000a900467ffffffffffffffff1684604001516140d7919061695f565b67ffffffffffffffff161115614119576040517fc44a082100000000000000000000000000000000000000000000000000000000815260040160405180910390fd5b6020838101516040805192830188905282018490526060808301919091524260c01b7fffffffffffffffff00000000000000000000000000000000000000000000000016608083015233901b7fffffffffffffffffffffffffffffffffffffffff000000000000000000000000166088820152609c0160405160208183030381529060405280519060200120945050505080806141b590616ba6565b915050613f57565b506141c8848461695f565b6073805467ffffffffffffffff4281167fffffffffffffffffffffffffffffffffffffffffffffffff00000000000000009092168217808455604080516060810182528781526020808201958652680100000000000000009384900485168284019081528589166000818152607290935284832093518455965160019390930180549151871686027fffffffffffffffffffffffffffffffff0000000000000000000000000000000090921693871693909317179091558554938916700100000000000000000000000000000000027fffffffffffffffff0000000000000000ffffffffffffffffffffffffffffffff938602939093167fffffffffffffffff00000000000000000000000000000000ffffffffffffffff90941693909317919091179093559151929550917f648a61dd2438f072f5a1960939abd30f37aea80d2e94c9792ad142d3e0a490a49190a2505050505050565b607a5473ffffffffffffffffffffffffffffffffffffffff163314614371576040517f4755657900000000000000000000000000000000000000000000000000000000815260040160405180910390fd5b7f000000000000000000000000000000000000000000000000000000000000000073ffffffffffffffffffffffffffffffffffffffff1663dbc169766040518163ffffffff1660e01b8152600401600060405180830381600087803b1580156143d957600080fd5b505af11580156143ed573d6000803e3d6000fd5b5050505061258c615bdb565b614401615108565b6040805160608101825293845267ffffffffffffffff92831660208086019182529284168583019081529584166000908152607290935291209251835551600190920180549351821668010000000000000000027fffffffffffffffffffffffffffffffff000000000000000000000000000000009094169290911691909117919091179055565b60745468010000000000000000900473ffffffffffffffffffffffffffffffffffffffff1633146144e6576040517fbbcbbc0500000000000000000000000000000000000000000000000000000000815260040160405180910390fd5b6144f68888888888888888614c38565b607480547fffffffffffffffffffffffffffffffffffffffffffffffff00000000000000001667ffffffffffffffff8781169182179092556000908152607560205260409020849055607954161561457157607980547fffffffffffffffffffffffffffffffff000000000000000000000000000000001690555b6040517f33d6247d000000000000000000000000000000000000000000000000000000008152600481018590527f000000000000000000000000000000000000000000000000000000000000000073ffffffffffffffffffffffffffffffffffffffff16906333d6247d90602401600060405180830381600087803b1580156145f957600080fd5b505af115801561460d573d6000803e3d6000fd5b50506079805477ffffffffffffffffffffffffffffffffffffffffffffffff167a093a800000000000000000000000000000000000000000000000001790555050604051838152339067ffffffffffffffff8716907fcc1b5520188bf1dd3e63f98164b577c4d75c11a619ddea692112f0d1aec4cf729060200160405180910390a35050505050505050565b607b547c0100000000000000000000000000000000000000000000000000000000900460ff16156146f6576040517f24eff8c300000000000000000000000000000000000000000000000000000000815260040160405180910390fd5b606f5460ff1615614733576040517f2f0047fc00000000000000000000000000000000000000000000000000000000815260040160405180910390fd5b600061473d61248f565b905081811115614779576040517f4732fdb500000000000000000000000000000000000000000000000000000000815260040160405180910390fd5b6113888311156147b5576040517fa29a6c7c00000000000000000000000000000000000000000000000000000000815260040160405180910390fd5b6147f773ffffffffffffffffffffffffffffffffffffffff7f000000000000000000000000000000000000000000000000000000000000000016333084615a59565b60007f000000000000000000000000000000000000000000000000000000000000000073ffffffffffffffffffffffffffffffffffffffff16633ed691ef6040518163ffffffff1660e01b8152600401602060405180830381865afa158015614864573d6000803e3d6000fd5b505050506040513d601f19601f820116820180604052508101906148889190616881565b60738054919250780100000000000000000000000000000000000000000000000090910467ffffffffffffffff169060186148c2836169a8565b91906101000a81548167ffffffffffffffff021916908367ffffffffffffffff1602179055505084846040516148f9929190616ed4565b60408051918290038220602083015281018290527fffffffffffffffff0000000000000000000000000000000000000000000000004260c01b166060820152606801604080518083037fffffffffffffffffffffffffffffffffffffffffffffffffffffffffffffffe001815291815281516020928301206073547801000000000000000000000000000000000000000000000000900467ffffffffffffffff1660009081526071909352912055323303614a2957607354604080518381523360208201526060918101829052600091810191909152780100000000000000000000000000000000000000000000000090910467ffffffffffffffff16907ff94bb37db835f1ab585ee00041849a09b12cd081d77fa15ca070757619cbc9319060800160405180910390a2614a88565b607360189054906101000a900467ffffffffffffffff1667ffffffffffffffff167ff94bb37db835f1ab585ee00041849a09b12cd081d77fa15ca070757619cbc93182338888604051614a7f9493929190616ee4565b60405180910390a25b5050505050565b607a5473ffffffffffffffffffffffffffffffffffffffff163314614ae0576040517f4755657900000000000000000000000000000000000000000000000000000000815260040160405180910390fd5b607480547fffffffff0000000000000000000000000000000000000000ffffffffffffffff166801000000000000000073ffffffffffffffffffffffffffffffffffffffff8416908102919091179091556040519081527f61f8fec29495a3078e9271456f05fb0707fd4e41f7661865f80fc437d06681ca906020016119f9565b614b69615108565b73ffffffffffffffffffffffffffffffffffffffff8116614c0c576040517f08c379a000000000000000000000000000000000000000000000000000000000815260206004820152602660248201527f4f776e61626c653a206e6577206f776e657220697320746865207a65726f206160448201527f64647265737300000000000000000000000000000000000000000000000000006064820152608401610eaf565b611e65816159e2565b614c1d615108565b67ffffffffffffffff16600090815260756020526040902055565b600067ffffffffffffffff891615614d065760795467ffffffffffffffff908116908a161115614c94576040517fbb14c20500000000000000000000000000000000000000000000000000000000815260040160405180910390fd5b5067ffffffffffffffff8089166000908152607860205260409020600281015481549092898116680100000000000000009092041614614d00576040517f2bd2e3e700000000000000000000000000000000000000000000000000000000815260040160405180910390fd5b50614da2565b5067ffffffffffffffff861660009081526075602052604090205480614d58576040517f4997b98600000000000000000000000000000000000000000000000000000000815260040160405180910390fd5b60745467ffffffffffffffff9081169088161115614da2576040517f1e56e9e200000000000000000000000000000000000000000000000000000000815260040160405180910390fd5b60795467ffffffffffffffff9081169089161180614dd457508867ffffffffffffffff168867ffffffffffffffff1611155b80614dfb575060795467ffffffffffffffff68010000000000000000909104811690891611155b15614e32576040517fbfa7079f00000000000000000000000000000000000000000000000000000000815260040160405180910390fd5b67ffffffffffffffff888116600090815260786020526040902054680100000000000000009004811690871614614e95576040517f32a2a77f00000000000000000000000000000000000000000000000000000000815260040160405180910390fd5b6000614ea48888888589611a04565b905060007f30644e72e131a029b85045b68181585d2833e84879b9709143e1f593f0000001600283604051614ed99190616865565b602060405180830381855afa158015614ef6573d6000803e3d6000fd5b5050506040513d601f19601f82011682018060405250810190614f199190616881565b614f2391906168c9565b6040805160208101825282815290517f8d8f8a5c00000000000000000000000000000000000000000000000000000000815291925073ffffffffffffffffffffffffffffffffffffffff7f00000000000000000000000000000000000000000000000000000000000000001691638d8f8a5c91614fa69189918991600401616f1a565b602060405180830381865afa158015614fc3573d6000803e3d6000fd5b505050506040513d601f19601f82011682018060405250810190614fe79190616f62565b61501d576040517f09bde33900000000000000000000000000000000000000000000000000000000815260040160405180910390fd5b67ffffffffffffffff8a16600090815260786020526040902060020154869003615073576040517fa47276bd00000000000000000000000000000000000000000000000000000000815260040160405180910390fd5b5050505050505050505050565b7f000000000000000000000000000000000000000000000000000000000000000073ffffffffffffffffffffffffffffffffffffffff16632072f6c56040518163ffffffff1660e01b8152600401600060405180830381600087803b1580156150e857600080fd5b505af11580156150fc573d6000803e3d6000fd5b5050505061258c615c6a565b60335473ffffffffffffffffffffffffffffffffffffffff16331461258c576040517f08c379a000000000000000000000000000000000000000000000000000000000815260206004820181905260248201527f4f776e61626c653a2063616c6c6572206973206e6f7420746865206f776e65726044820152606401610eaf565b60795467ffffffffffffffff6801000000000000000090910481169082161115806151c3575060795467ffffffffffffffff908116908216115b156151fa576040517fd086b70b00000000000000000000000000000000000000000000000000000000815260040160405180910390fd5b67ffffffffffffffff818116600081815260786020908152604080832080546074805468010000000000000000928390049098167fffffffffffffffffffffffffffffffffffffffffffffffff000000000000000090981688179055600282015487865260759094529382902092909255607980547fffffffffffffffffffffffffffffffff0000000000000000ffffffffffffffff169390940292909217909255600182015490517f33d6247d00000000000000000000000000000000000000000000000000000000815260048101919091529091907f000000000000000000000000000000000000000000000000000000000000000073ffffffffffffffffffffffffffffffffffffffff16906333d6247d90602401600060405180830381600087803b15801561532c57600080fd5b505af1158015615340573d6000803e3d6000fd5b505050508267ffffffffffffffff168167ffffffffffffffff167f328d3c6c0fd6f1be0515e422f2d87e59f25922cbc2233568515a0c4bc3f8510e846002015460405161538f91815260200190565b60405180910390a3505050565b6000806153a7613755565b905067ffffffffffffffff8916156154775760795467ffffffffffffffff908116908a161115615403576040517fbb14c20500000000000000000000000000000000000000000000000000000000815260040160405180910390fd5b67ffffffffffffffff808a1660009081526078602052604090206002810154815490945090918a8116680100000000000000009092041614615471576040517f2bd2e3e700000000000000000000000000000000000000000000000000000000815260040160405180910390fd5b50615518565b67ffffffffffffffff88166000908152607560205260409020549150816154ca576040517f4997b98600000000000000000000000000000000000000000000000000000000815260040160405180910390fd5b8067ffffffffffffffff168867ffffffffffffffff161115615518576040517f1e56e9e200000000000000000000000000000000000000000000000000000000815260040160405180910390fd5b8067ffffffffffffffff168767ffffffffffffffff1611615565576040517fb9b18f5700000000000000000000000000000000000000000000000000000000815260040160405180910390fd5b6000615574898989868a611a04565b905060007f30644e72e131a029b85045b68181585d2833e84879b9709143e1f593f00000016002836040516155a99190616865565b602060405180830381855afa1580156155c6573d6000803e3d6000fd5b5050506040513d601f19601f820116820180604052508101906155e99190616881565b6155f391906168c9565b6040805160208101825282815290517f8d8f8a5c00000000000000000000000000000000000000000000000000000000815291925073ffffffffffffffffffffffffffffffffffffffff7f00000000000000000000000000000000000000000000000000000000000000001691638d8f8a5c91615676918a918a91600401616f1a565b602060405180830381865afa158015615693573d6000803e3d6000fd5b505050506040513d601f19601f820116820180604052508101906156b79190616f62565b6156ed576040517f09bde33900000000000000000000000000000000000000000000000000000000815260040160405180910390fd5b615073336156fb858c616987565b67ffffffffffffffff1661570d612fef565b61571791906169cf565b73ffffffffffffffffffffffffffffffffffffffff7f0000000000000000000000000000000000000000000000000000000000000000169190615cfd565b600061575f613755565b90508160008061576f8484616987565b606f5467ffffffffffffffff91821692506000916157939161010090041642616c4a565b90505b8467ffffffffffffffff168467ffffffffffffffff161461581e5767ffffffffffffffff808516600090815260726020526040902060018101549091168210156157fc57600181015468010000000000000000900467ffffffffffffffff169450615818565b6158068686616987565b67ffffffffffffffff1693505061581e565b50615796565b600061582a8484616c4a565b90508381101561588157808403600c81116158455780615848565b600c5b9050806103e80a81606f60099054906101000a900461ffff1661ffff160a60705402816158775761587761689a565b04607055506158f1565b838103600c81116158925780615895565b600c5b90506000816103e80a82606f60099054906101000a900461ffff1661ffff160a670de0b6b3a764000002816158cc576158cc61689a565b04905080607054670de0b6b3a764000002816158ea576158ea61689a565b0460705550505b683635c9adc5dea00000607054111561591657683635c9adc5dea00000607055613d75565b633b9aca006070541015613d7557633b9aca0060705550505050505050565b60795467ffffffffffffffff68010000000000000000820481169116111561258c5760795460009061597e9068010000000000000000900467ffffffffffffffff16600161695f565b905061598981611bdb565b15611e65576079546000906002906159ac90849067ffffffffffffffff16616987565b6159b69190616f84565b6159c0908361695f565b90506159cb81611bdb565b156159d95761375181615189565b61375182615189565b6033805473ffffffffffffffffffffffffffffffffffffffff8381167fffffffffffffffffffffffff0000000000000000000000000000000000000000831681179093556040519116919082907f8be0079c531659141344cd1fd0a4f28419497f9722a3daafe3b4186f6b6457e090600090a35050565b60405173ffffffffffffffffffffffffffffffffffffffff80851660248301528316604482015260648101829052615b359085907f23b872dd00000000000000000000000000000000000000000000000000000000906084015b604080517fffffffffffffffffffffffffffffffffffffffffffffffffffffffffffffffe08184030181529190526020810180517bffffffffffffffffffffffffffffffffffffffffffffffffffffffff167fffffffff0000000000000000000000000000000000000000000000000000000090931692909217909152615d58565b50505050565b600054610100900460ff16615bd2576040517f08c379a000000000000000000000000000000000000000000000000000000000815260206004820152602b60248201527f496e697469616c697a61626c653a20636f6e7472616374206973206e6f74206960448201527f6e697469616c697a696e670000000000000000000000000000000000000000006064820152608401610eaf565b61258c336159e2565b606f5460ff16615c17576040517f5386698100000000000000000000000000000000000000000000000000000000815260040160405180910390fd5b606f80547fffffffffffffffffffffffffffffffffffffffffffffffffffffffffffffff001690556040517f1e5e34eea33501aecf2ebec9fe0e884a40804275ea7fe10b2ba084c8374308b390600090a1565b606f5460ff1615615ca7576040517f2f0047fc00000000000000000000000000000000000000000000000000000000815260040160405180910390fd5b606f80547fffffffffffffffffffffffffffffffffffffffffffffffffffffffffffffff001660011790556040517f2261efe5aef6fedc1fd1550b25facc9181745623049c7901287030b9ad1a549790600090a1565b60405173ffffffffffffffffffffffffffffffffffffffff8316602482015260448101829052615d539084907fa9059cbb0000000000000000000000000000000000000000000000000000000090606401615ab3565b505050565b6000615dba826040518060400160405280602081526020017f5361666545524332303a206c6f772d6c6576656c2063616c6c206661696c65648152508573ffffffffffffffffffffffffffffffffffffffff16615e649092919063ffffffff16565b805190915015615d535780806020019051810190615dd89190616f62565b615d53576040517f08c379a000000000000000000000000000000000000000000000000000000000815260206004820152602a60248201527f5361666545524332303a204552433230206f7065726174696f6e20646964206e60448201527f6f742073756363656564000000000000000000000000000000000000000000006064820152608401610eaf565b6060615e738484600085615e7b565b949350505050565b606082471015615f0d576040517f08c379a000000000000000000000000000000000000000000000000000000000815260206004820152602660248201527f416464726573733a20696e73756666696369656e742062616c616e636520666f60448201527f722063616c6c00000000000000000000000000000000000000000000000000006064820152608401610eaf565b6000808673ffffffffffffffffffffffffffffffffffffffff168587604051615f369190616865565b60006040518083038185875af1925050503d8060008114615f73576040519150601f19603f3d011682016040523d82523d6000602084013e615f78565b606091505b5091509150615f8987838387615f94565b979650505050505050565b6060831561602a5782516000036160235773ffffffffffffffffffffffffffffffffffffffff85163b616023576040517f08c379a000000000000000000000000000000000000000000000000000000000815260206004820152601d60248201527f416464726573733a2063616c6c20746f206e6f6e2d636f6e74726163740000006044820152606401610eaf565b5081615e73565b615e73838381511561603f5781518083602001fd5b806040517f08c379a0000000000000000000000000000000000000000000000000000000008152600401610eaf9190616230565b803567ffffffffffffffff8116811461373857600080fd5b60008083601f84011261609d57600080fd5b50813567ffffffffffffffff8111156160b557600080fd5b6020830191508360208285010111156160cd57600080fd5b9250929050565b60008060008060008060008060e0898b0312156160f057600080fd5b6160f989616073565b975061610760208a01616073565b965061611560408a01616073565b955061612360608a01616073565b94506080890135935060a0890135925060c089013567ffffffffffffffff81111561614d57600080fd5b6161598b828c0161608b565b999c989b5096995094979396929594505050565b600080600080600060a0868803121561618557600080fd5b61618e86616073565b945061619c60208701616073565b93506161aa60408701616073565b94979396509394606081013594506080013592915050565b60005b838110156161dd5781810151838201526020016161c5565b50506000910152565b600081518084526161fe8160208601602086016161c2565b601f017fffffffffffffffffffffffffffffffffffffffffffffffffffffffffffffffe0169290920160200192915050565b60208152600061624360208301846161e6565b9392505050565b806040810183101561625b57600080fd5b92915050565b6000806000806000806000806101a0898b03121561627e57600080fd5b61628789616073565b975061629560208a01616073565b96506162a360408a01616073565b955060608901359450608089013593506162c08a60a08b0161624a565b925061016089018a8111156162d457600080fd5b60e08a0192506162e48b8261624a565b9150509295985092959890939650565b60006020828403121561630657600080fd5b813561ffff8116811461624357600080fd5b600080600080600060a0868803121561633057600080fd5b61633986616073565b945061634760208701616073565b94979496505050506040830135926060810135926080909101359150565b60006020828403121561637757600080fd5b61624382616073565b600080600080600080600060c0888a03121561639b57600080fd5b6163a488616073565b96506163b260208901616073565b95506163c060408901616073565b9450606088013593506080880135925060a088013567ffffffffffffffff8111156163ea57600080fd5b6163f68a828b0161608b565b989b979a50959850939692959293505050565b7f4e487b7100000000000000000000000000000000000000000000000000000000600052604160045260246000fd5b600082601f83011261644957600080fd5b813567ffffffffffffffff8082111561646457616464616409565b604051601f83017fffffffffffffffffffffffffffffffffffffffffffffffffffffffffffffffe0908116603f011681019082821181831017156164aa576164aa616409565b816040528381528660208588010111156164c357600080fd5b836020870160208301376000602085830101528094505050505092915050565b803573ffffffffffffffffffffffffffffffffffffffff8116811461373857600080fd5b600080600080600060a0868803121561651f57600080fd5b85359450602086013567ffffffffffffffff81111561653d57600080fd5b61654988828901616438565b9450506040860135925061655f60608701616073565b915061656d608087016164e3565b90509295509295909350565b60006020828403121561658b57600080fd5b616243826164e3565b60008083601f8401126165a657600080fd5b50813567ffffffffffffffff8111156165be57600080fd5b6020830191508360208260051b85010111156160cd57600080fd5b6000806000806000606086880312156165f157600080fd5b853567ffffffffffffffff8082111561660957600080fd5b61661589838a01616594565b9097509550859150616629602089016164e3565b9450604088013591508082111561663f57600080fd5b5061664c8882890161608b565b969995985093965092949392505050565b60006020828403121561666f57600080fd5b5035919050565b60006020828403121561668857600080fd5b813567ffffffffffffffff81111561669f57600080fd5b615e7384828501616438565b6000806000806000808688036101208112156166c657600080fd5b60a08112156166d457600080fd5b5086955060a0870135945060c087013567ffffffffffffffff808211156166fa57600080fd5b6167068a838b01616438565b955060e089013591508082111561671c57600080fd5b6167288a838b01616438565b945061010089013591508082111561673f57600080fd5b5061674c89828a0161608b565b979a9699509497509295939492505050565b6000806020838503121561677157600080fd5b823567ffffffffffffffff81111561678857600080fd5b61679485828601616594565b90969095509350505050565b600080600080608085870312156167b657600080fd5b6167bf85616073565b9350602085013592506167d460408601616073565b91506167e260608601616073565b905092959194509250565b60008060006040848603121561680257600080fd5b833567ffffffffffffffff81111561681957600080fd5b6168258682870161608b565b909790965060209590950135949350505050565b6000806040838503121561684c57600080fd5b8235915061685c60208401616073565b90509250929050565b600082516168778184602087016161c2565b9190910192915050565b60006020828403121561689357600080fd5b5051919050565b7f4e487b7100000000000000000000000000000000000000000000000000000000600052601260045260246000fd5b6000826168d8576168d861689a565b500690565b600181811c908216806168f157607f821691505b60208210810361692a577f4e487b7100000000000000000000000000000000000000000000000000000000600052602260045260246000fd5b50919050565b7f4e487b7100000000000000000000000000000000000000000000000000000000600052601160045260246000fd5b67ffffffffffffffff81811683821601908082111561698057616980616930565b5092915050565b67ffffffffffffffff82811682821603908082111561698057616980616930565b600067ffffffffffffffff8083168181036169c5576169c5616930565b6001019392505050565b808202811582820484141761625b5761625b616930565b7f4e487b7100000000000000000000000000000000000000000000000000000000600052603260045260246000fd5b600082357fffffffffffffffffffffffffffffffffffffffffffffffffffffffffffffff8183360301811261687757600080fd5b600060808236031215616a5b57600080fd5b6040516080810167ffffffffffffffff8282108183111715616a7f57616a7f616409565b816040528435915080821115616a9457600080fd5b50616aa136828601616438565b82525060208301356020820152616aba60408401616073565b6040820152616acb60608401616073565b606082015292915050565b60008451616ae88184602089016161c2565b919091019283525060c01b7fffffffffffffffff000000000000000000000000000000000000000000000000166020820152602801919050565b85815260008551616b3a816020850160208a016161c2565b602092019182019490945260c09290921b7fffffffffffffffff00000000000000000000000000000000000000000000000016604083015260601b7fffffffffffffffffffffffffffffffffffffffff000000000000000000000000166048820152605c019392505050565b60007fffffffffffffffffffffffffffffffffffffffffffffffffffffffffffffffff8203616bd757616bd7616930565b5060010190565b8183528181602085013750600060208284010152600060207fffffffffffffffffffffffffffffffffffffffffffffffffffffffffffffffe0601f840116840101905092915050565b838152604060208201526000616c41604083018486616bde565b95945050505050565b8181038181111561625b5761625b616930565b600082616c6c57616c6c61689a565b500490565b601f821115615d5357600081815260208120601f850160051c81016020861015616c985750805b601f850160051c820191505b81811015616cb757828155600101616ca4565b505050505050565b815167ffffffffffffffff811115616cd957616cd9616409565b616ced81616ce784546168dd565b84616c71565b602080601f831160018114616d405760008415616d0a5750858301515b7fffffffffffffffffffffffffffffffffffffffffffffffffffffffffffffffff600386901b1c1916600185901b178555616cb7565b6000858152602081207fffffffffffffffffffffffffffffffffffffffffffffffffffffffffffffffe08616915b82811015616d8d57888601518255948401946001909101908401616d6e565b5085821015616dc957878501517fffffffffffffffffffffffffffffffffffffffffffffffffffffffffffffffff600388901b60f8161c191681555b5050505050600190811b01905550565b600067ffffffffffffffff808716835280861660208401525060606040830152616e07606083018486616bde565b9695505050505050565b8082018082111561625b5761625b616930565b600082357fffffffffffffffffffffffffffffffffffffffffffffffffffffffffffffffa183360301811261687757600080fd5b600060608236031215616e6a57600080fd5b6040516060810167ffffffffffffffff8282108183111715616e8e57616e8e616409565b816040528435915080821115616ea357600080fd5b50616eb036828601616438565b82525060208301356020820152616ec960408401616073565b604082015292915050565b8183823760009101908152919050565b84815273ffffffffffffffffffffffffffffffffffffffff84166020820152606060408201526000616e07606083018486616bde565b604081526000616f2e604083018587616bde565b905060208083018460005b6001811015616f5657815183529183019190830190600101616f39565b50505050949350505050565b600060208284031215616f7457600080fd5b8151801515811461624357600080fd5b600067ffffffffffffffff80841680616f9f57616f9f61689a565b9216919091049291505056fea2646970667358221220c2dcfc1e8135871e0e0ee83395b841f00a2b2fba19b5e55af2b36a1d63042b7364736f6c63430008110033",
  "linkReferences": {},
  "deployedLinkReferences": {}
}